{
  "contractName": "Bank2",
  "abi": [
    {
      "inputs": [],
      "stateMutability": "nonpayable",
      "type": "constructor"
    },
    {
      "inputs": [
        {
          "internalType": "string",
          "name": "accountName",
          "type": "string"
        }
      ],
      "name": "CreateAccount",
      "outputs": [],
      "stateMutability": "nonpayable",
      "type": "function"
    },
    {
      "inputs": [
        {
          "internalType": "string",
          "name": "accountName",
          "type": "string"
        }
      ],
      "name": "Deposit",
      "outputs": [],
      "stateMutability": "payable",
      "type": "function"
    },
    {
      "inputs": [
        {
          "internalType": "string",
          "name": "accountName",
          "type": "string"
        },
        {
          "internalType": "uint256",
          "name": "amount",
          "type": "uint256"
        }
      ],
      "name": "Withdraw",
      "outputs": [],
      "stateMutability": "nonpayable",
      "type": "function"
    },
    {
      "inputs": [
        {
          "internalType": "string",
          "name": "_accountName",
          "type": "string"
        },
        {
          "internalType": "string",
          "name": "_targetAccName",
          "type": "string"
        },
        {
          "internalType": "uint256",
          "name": "amount",
          "type": "uint256"
        }
      ],
      "name": "Transfer",
      "outputs": [],
      "stateMutability": "nonpayable",
      "type": "function"
    },
    {
      "inputs": [
        {
          "internalType": "string",
          "name": "_accountName",
          "type": "string"
        },
        {
          "internalType": "string[]",
          "name": "_targetAccsName",
          "type": "string[]"
        },
        {
          "internalType": "uint256",
          "name": "amount",
          "type": "uint256"
        }
      ],
      "name": "BulkTransfer",
      "outputs": [],
      "stateMutability": "nonpayable",
      "type": "function"
    },
    {
      "inputs": [
        {
          "internalType": "string",
          "name": "_accountName",
          "type": "string"
        }
      ],
      "name": "GetAccountsInfo",
      "outputs": [
        {
          "components": [
            {
              "internalType": "address",
              "name": "addr",
              "type": "address"
            },
            {
              "internalType": "string",
              "name": "name",
              "type": "string"
            },
            {
              "internalType": "uint256",
              "name": "balance",
              "type": "uint256"
            },
            {
              "internalType": "bool",
              "name": "isExisted",
              "type": "bool"
            },
            {
              "components": [
                {
                  "internalType": "string",
                  "name": "sender",
                  "type": "string"
                },
                {
                  "internalType": "string",
                  "name": "receiver",
                  "type": "string"
                },
                {
                  "internalType": "uint256",
                  "name": "txvalue",
                  "type": "uint256"
                },
                {
                  "internalType": "uint256",
                  "name": "amount",
                  "type": "uint256"
                },
                {
                  "internalType": "bool",
                  "name": "feeCollected",
                  "type": "bool"
                },
                {
                  "internalType": "bool",
                  "name": "toBank",
                  "type": "bool"
                },
                {
                  "internalType": "uint256",
                  "name": "timestamp",
                  "type": "uint256"
                }
              ],
              "internalType": "struct Bank2.TransactionStruct[]",
              "name": "transactionHistory",
              "type": "tuple[]"
            }
          ],
          "internalType": "struct Bank2.AccountStruct",
          "name": "",
          "type": "tuple"
        }
      ],
      "stateMutability": "view",
      "type": "function"
    },
    {
      "inputs": [],
      "name": "GetAccountsList",
      "outputs": [
        {
          "internalType": "string[]",
          "name": "",
          "type": "string[]"
        }
      ],
      "stateMutability": "view",
      "type": "function"
    }
  ],
  "bytecode": "0x608060405234801561001057600080fd5b5033600160006101000a81548173ffffffffffffffffffffffffffffffffffffffff021916908373ffffffffffffffffffffffffffffffffffffffff160217905550611fd1806100616000396000f3fe6080604052600436106100705760003560e01c80638f6befe21161004e5780638f6befe2146100e5578063d5aced6c14610122578063ef6a4fe01461014b578063fd950f751461017457610070565b80635358be4d1461007557806380dfa4051461009e5780638a74696d146100ba575b600080fd5b34801561008157600080fd5b5061009c60048036038101906100979190611366565b61019d565b005b6100b860048036038101906100b391906113f1565b610549565b005b3480156100c657600080fd5b506100cf6106eb565b6040516100dc9190611584565b60405180910390f35b3480156100f157600080fd5b5061010c600480360381019061010791906113f1565b610807565b60405161011991906117f3565b60405180910390f35b34801561012e57600080fd5b50610149600480360381019061014491906118fb565b610ba2565b005b34801561015757600080fd5b50610172600480360381019061016d91906113f1565b610d41565b005b34801561018057600080fd5b5061019b60048036038101906101969190611986565b610e94565b005b60006002846040516101af9190611a1e565b9081526020016040518091039020905060006002846040516101d19190611a1e565b908152602001604051809103902090508160030160009054906101000a900460ff166101fc57600080fd5b3373ffffffffffffffffffffffffffffffffffffffff168260000160009054906101000a900473ffffffffffffffffffffffffffffffffffffffff1673ffffffffffffffffffffffffffffffffffffffff161461025857600080fd5b828260020154101561026957600080fd5b6102738585611136565b1561027d57600080fd5b600083905060008260000160009054906101000a900473ffffffffffffffffffffffffffffffffffffffff1673ffffffffffffffffffffffffffffffffffffffff168460000160009054906101000a900473ffffffffffffffffffffffffffffffffffffffff1673ffffffffffffffffffffffffffffffffffffffff161461031f57606460638661030e9190611a64565b6103189190611aed565b9150600190505b848460020160008282546103339190611b1e565b925050819055508183600201600082825461034e9190611b52565b9250508190555060006040518060e0016040528089815260200188815260200187815260200184815260200183151581526020016000151581526020014281525090506002886040516103a19190611a1e565b908152602001604051809103902060040181908060018154018082558091505060019003906000526020600020906006020160009091909190915060008201518160000190816103f19190611db4565b5060208201518160010190816104079190611db4565b50604082015181600201556060820151816003015560808201518160040160006101000a81548160ff02191690831515021790555060a08201518160040160016101000a81548160ff02191690831515021790555060c0820151816005015550506002876040516104789190611a1e565b908152602001604051809103902060040181908060018154018082558091505060019003906000526020600020906006020160009091909190915060008201518160000190816104c89190611db4565b5060208201518160010190816104de9190611db4565b50604082015181600201556060820151816003015560808201518160040160006101000a81548160ff02191690831515021790555060a08201518160040160016101000a81548160ff02191690831515021790555060c0820151816005015550505050505050505050565b6002816040516105599190611a1e565b908152602001604051809103902060030160009054906101000a900460ff1661058157600080fd5b60003a3461058f9190611b1e565b9050806002836040516105a29190611a1e565b908152602001604051809103902060020160008282546105c29190611b52565b925050819055506002826040516105d99190611a1e565b90815260200160405180910390206004016040518060e0016040528060405180602001604052806000815250815260200184815260200134815260200183815260200160001515815260200160011515815260200142815250908060018154018082558091505060019003906000526020600020906006020160009091909190915060008201518160000190816106709190611db4565b5060208201518160010190816106869190611db4565b50604082015181600201556060820151816003015560808201518160040160006101000a81548160ff02191690831515021790555060a08201518160040160016101000a81548160ff02191690831515021790555060c0820151816005015550505050565b60606000600360003373ffffffffffffffffffffffffffffffffffffffff1673ffffffffffffffffffffffffffffffffffffffff168152602001908152602001600020805480602002602001604051908101604052809291908181526020016000905b828210156107fa57838290600052602060002001805461076d90611bd7565b80601f016020809104026020016040519081016040528092919081815260200182805461079990611bd7565b80156107e65780601f106107bb576101008083540402835291602001916107e6565b820191906000526020600020905b8154815290600101906020018083116107c957829003601f168201915b50505050508152602001906001019061074e565b5050505090508091505090565b61080f61118f565b3373ffffffffffffffffffffffffffffffffffffffff166002836040516108369190611a1e565b908152602001604051809103902060000160009054906101000a900473ffffffffffffffffffffffffffffffffffffffff1673ffffffffffffffffffffffffffffffffffffffff161461088857600080fd5b600060028360405161089a9190611a1e565b90815260200160405180910390206040518060a00160405290816000820160009054906101000a900473ffffffffffffffffffffffffffffffffffffffff1673ffffffffffffffffffffffffffffffffffffffff1673ffffffffffffffffffffffffffffffffffffffff16815260200160018201805461091990611bd7565b80601f016020809104026020016040519081016040528092919081815260200182805461094590611bd7565b80156109925780601f1061096757610100808354040283529160200191610992565b820191906000526020600020905b81548152906001019060200180831161097557829003601f168201915b50505050508152602001600282015481526020016003820160009054906101000a900460ff1615151515815260200160048201805480602002602001604051908101604052809291908181526020016000905b82821015610b8f57838290600052602060002090600602016040518060e0016040529081600082018054610a1890611bd7565b80601f0160208091040260200160405190810160405280929190818152602001828054610a4490611bd7565b8015610a915780601f10610a6657610100808354040283529160200191610a91565b820191906000526020600020905b815481529060010190602001808311610a7457829003601f168201915b50505050508152602001600182018054610aaa90611bd7565b80601f0160208091040260200160405190810160405280929190818152602001828054610ad690611bd7565b8015610b235780601f10610af857610100808354040283529160200191610b23565b820191906000526020600020905b815481529060010190602001808311610b0657829003601f168201915b5050505050815260200160028201548152602001600382015481526020016004820160009054906101000a900460ff161515151581526020016004820160019054906101000a900460ff16151515158152602001600582015481525050815260200190600101906109e5565b5050505081525050905080915050919050565b600283604051610bb29190611a1e565b908152602001604051809103902060030160009054906101000a900460ff16610bda57600080fd5b3373ffffffffffffffffffffffffffffffffffffffff16600284604051610c019190611a1e565b908152602001604051809103902060000160009054906101000a900473ffffffffffffffffffffffffffffffffffffffff1673ffffffffffffffffffffffffffffffffffffffff1614610c5357600080fd5b6000825182610c629190611a64565b905080600285604051610c759190611a1e565b9081526020016040518091039020600201541015610c9257600080fd5b60005b8351811015610d3a573073ffffffffffffffffffffffffffffffffffffffff16635358be4d86868481518110610cce57610ccd611e86565b5b6020026020010151866040518463ffffffff1660e01b8152600401610cf593929190611f0e565b600060405180830381600087803b158015610d0f57600080fd5b505af1158015610d23573d6000803e3d6000fd5b505050508080610d3290611f53565b915050610c95565b5050505050565b60011515600282604051610d559190611a1e565b908152602001604051809103902060030160009054906101000a900460ff16151503610d8057600080fd5b600360003373ffffffffffffffffffffffffffffffffffffffff1673ffffffffffffffffffffffffffffffffffffffff16815260200190815260200160002081908060018154018082558091505060019003906000526020600020016000909190919091509081610df19190611db4565b506000600282604051610e049190611a1e565b9081526020016040518091039020905081816001019081610e259190611db4565b506000816002018190555060018160030160006101000a81548160ff021916908315150217905550338160000160006101000a81548173ffffffffffffffffffffffffffffffffffffffff021916908373ffffffffffffffffffffffffffffffffffffffff1602179055505050565b600282604051610ea49190611a1e565b908152602001604051809103902060030160009054906101000a900460ff16610ecc57600080fd5b3373ffffffffffffffffffffffffffffffffffffffff16600283604051610ef39190611a1e565b908152602001604051809103902060000160009054906101000a900473ffffffffffffffffffffffffffffffffffffffff1673ffffffffffffffffffffffffffffffffffffffff1614610f4557600080fd5b80600283604051610f569190611a1e565b9081526020016040518091039020600201541015610f7357600080fd5b80600283604051610f849190611a1e565b90815260200160405180910390206002016000828254610fa49190611b1e565b92505081905550600160009054906101000a900473ffffffffffffffffffffffffffffffffffffffff1673ffffffffffffffffffffffffffffffffffffffff166108fc829081150290604051600060405180830381858888f19350505050158015611013573d6000803e3d6000fd5b506002826040516110249190611a1e565b90815260200160405180910390206004016040518060e0016040528084815260200160405180602001604052806000815250815260200183815260200183815260200160001515815260200160011515815260200142815250908060018154018082558091505060019003906000526020600020906006020160009091909190915060008201518160000190816110bb9190611db4565b5060208201518160010190816110d19190611db4565b50604082015181600201556060820151816003015560808201518160040160006101000a81548160ff02191690831515021790555060a08201518160040160016101000a81548160ff02191690831515021790555060c0820151816005015550505050565b6000816040516020016111499190611a1e565b60405160208183030381529060405280519060200120836040516020016111709190611a1e565b6040516020818303038152906040528051906020012014905092915050565b6040518060a00160405280600073ffffffffffffffffffffffffffffffffffffffff1681526020016060815260200160008152602001600015158152602001606081525090565b6000604051905090565b600080fd5b600080fd5b600080fd5b600080fd5b6000601f19601f8301169050919050565b7f4e487b7100000000000000000000000000000000000000000000000000000000600052604160045260246000fd5b61123d826111f4565b810181811067ffffffffffffffff8211171561125c5761125b611205565b5b80604052505050565b600061126f6111d6565b905061127b8282611234565b919050565b600067ffffffffffffffff82111561129b5761129a611205565b5b6112a4826111f4565b9050602081019050919050565b82818337600083830152505050565b60006112d36112ce84611280565b611265565b9050828152602081018484840111156112ef576112ee6111ef565b5b6112fa8482856112b1565b509392505050565b600082601f830112611317576113166111ea565b5b81356113278482602086016112c0565b91505092915050565b6000819050919050565b61134381611330565b811461134e57600080fd5b50565b6000813590506113608161133a565b92915050565b60008060006060848603121561137f5761137e6111e0565b5b600084013567ffffffffffffffff81111561139d5761139c6111e5565b5b6113a986828701611302565b935050602084013567ffffffffffffffff8111156113ca576113c96111e5565b5b6113d686828701611302565b92505060406113e786828701611351565b9150509250925092565b600060208284031215611407576114066111e0565b5b600082013567ffffffffffffffff811115611425576114246111e5565b5b61143184828501611302565b91505092915050565b600081519050919050565b600082825260208201905092915050565b6000819050602082019050919050565b600081519050919050565b600082825260208201905092915050565b60005b838110156114a0578082015181840152602081019050611485565b838111156114af576000848401525b50505050565b60006114c082611466565b6114ca8185611471565b93506114da818560208601611482565b6114e3816111f4565b840191505092915050565b60006114fa83836114b5565b905092915050565b6000602082019050919050565b600061151a8261143a565b6115248185611445565b93508360208202850161153685611456565b8060005b85811015611572578484038952815161155385826114ee565b945061155e83611502565b925060208a0199505060018101905061153a565b50829750879550505050505092915050565b6000602082019050818103600083015261159e818461150f565b905092915050565b600073ffffffffffffffffffffffffffffffffffffffff82169050919050565b60006115d1826115a6565b9050919050565b6115e1816115c6565b82525050565b6115f081611330565b82525050565b60008115159050919050565b61160b816115f6565b82525050565b600081519050919050565b600082825260208201905092915050565b6000819050602082019050919050565b600060e083016000830151848203600086015261165a82826114b5565b9150506020830151848203602086015261167482826114b5565b915050604083015161168960408601826115e7565b50606083015161169c60608601826115e7565b5060808301516116af6080860182611602565b5060a08301516116c260a0860182611602565b5060c08301516116d560c08601826115e7565b508091505092915050565b60006116ec838361163d565b905092915050565b6000602082019050919050565b600061170c82611611565b611716818561161c565b9350836020820285016117288561162d565b8060005b85811015611764578484038952815161174585826116e0565b9450611750836116f4565b925060208a0199505060018101905061172c565b50829750879550505050505092915050565b600060a08301600083015161178e60008601826115d8565b50602083015184820360208601526117a682826114b5565b91505060408301516117bb60408601826115e7565b5060608301516117ce6060860182611602565b50608083015184820360808601526117e68282611701565b9150508091505092915050565b6000602082019050818103600083015261180d8184611776565b905092915050565b600067ffffffffffffffff8211156118305761182f611205565b5b602082029050602081019050919050565b600080fd5b600061185961185484611815565b611265565b9050808382526020820190506020840283018581111561187c5761187b611841565b5b835b818110156118c357803567ffffffffffffffff8111156118a1576118a06111ea565b5b8086016118ae8982611302565b8552602085019450505060208101905061187e565b5050509392505050565b600082601f8301126118e2576118e16111ea565b5b81356118f2848260208601611846565b91505092915050565b600080600060608486031215611914576119136111e0565b5b600084013567ffffffffffffffff811115611932576119316111e5565b5b61193e86828701611302565b935050602084013567ffffffffffffffff81111561195f5761195e6111e5565b5b61196b868287016118cd565b925050604061197c86828701611351565b9150509250925092565b6000806040838503121561199d5761199c6111e0565b5b600083013567ffffffffffffffff8111156119bb576119ba6111e5565b5b6119c785828601611302565b92505060206119d885828601611351565b9150509250929050565b600081905092915050565b60006119f882611466565b611a0281856119e2565b9350611a12818560208601611482565b80840191505092915050565b6000611a2a82846119ed565b915081905092915050565b7f4e487b7100000000000000000000000000000000000000000000000000000000600052601160045260246000fd5b6000611a6f82611330565b9150611a7a83611330565b9250817fffffffffffffffffffffffffffffffffffffffffffffffffffffffffffffffff0483118215151615611ab357611ab2611a35565b5b828202905092915050565b7f4e487b7100000000000000000000000000000000000000000000000000000000600052601260045260246000fd5b6000611af882611330565b9150611b0383611330565b925082611b1357611b12611abe565b5b828204905092915050565b6000611b2982611330565b9150611b3483611330565b925082821015611b4757611b46611a35565b5b828203905092915050565b6000611b5d82611330565b9150611b6883611330565b9250827fffffffffffffffffffffffffffffffffffffffffffffffffffffffffffffffff03821115611b9d57611b9c611a35565b5b828201905092915050565b7f4e487b7100000000000000000000000000000000000000000000000000000000600052602260045260246000fd5b60006002820490506001821680611bef57607f821691505b602082108103611c0257611c01611ba8565b5b50919050565b60008190508160005260206000209050919050565b60006020601f8301049050919050565b600082821b905092915050565b600060088302611c6a7fffffffffffffffffffffffffffffffffffffffffffffffffffffffffffffffff82611c2d565b611c748683611c2d565b95508019841693508086168417925050509392505050565b6000819050919050565b6000611cb1611cac611ca784611330565b611c8c565b611330565b9050919050565b6000819050919050565b611ccb83611c96565b611cdf611cd782611cb8565b848454611c3a565b825550505050565b600090565b611cf4611ce7565b611cff818484611cc2565b505050565b5b81811015611d2357611d18600082611cec565b600181019050611d05565b5050565b601f821115611d6857611d3981611c08565b611d4284611c1d565b81016020851015611d51578190505b611d65611d5d85611c1d565b830182611d04565b50505b505050565b600082821c905092915050565b6000611d8b60001984600802611d6d565b1980831691505092915050565b6000611da48383611d7a565b9150826002028217905092915050565b611dbd82611466565b67ffffffffffffffff811115611dd657611dd5611205565b5b611de08254611bd7565b611deb828285611d27565b600060209050601f831160018114611e1e5760008415611e0c578287015190505b611e168582611d98565b865550611e7e565b601f198416611e2c86611c08565b60005b82811015611e5457848901518255600182019150602085019450602081019050611e2f565b86831015611e715784890151611e6d601f891682611d7a565b8355505b6001600288020188555050505b505050505050565b7f4e487b7100000000000000000000000000000000000000000000000000000000600052603260045260246000fd5b600082825260208201905092915050565b6000611ed182611466565b611edb8185611eb5565b9350611eeb818560208601611482565b611ef4816111f4565b840191505092915050565b611f0881611330565b82525050565b60006060820190508181036000830152611f288186611ec6565b90508181036020830152611f3c8185611ec6565b9050611f4b6040830184611eff565b949350505050565b6000611f5e82611330565b91507fffffffffffffffffffffffffffffffffffffffffffffffffffffffffffffffff8203611f9057611f8f611a35565b5b60018201905091905056fea26469706673582212204554eb8ec8b17ccb894ce1f3cc41d3f2ebf19cd01cc37419e916b219493aabc064736f6c634300080f0033",
  "immutableReferences": {},
  "source": "// SPDX-License-Identifier: MIT\r\npragma solidity >=0.4.22 <0.9.0;\r\n\r\ncontract Bank2 {\r\n    address[] private addresses;\r\n    address payable private bank;\r\n\r\n    struct TransactionStruct {\r\n        string sender;\r\n        string receiver;\r\n        uint256 txvalue;\r\n        uint256 amount;\r\n        bool feeCollected;\r\n        bool toBank;\r\n        uint256 timestamp;\r\n    }\r\n    // name => account\r\n    // address => [name, name, name]\r\n\r\n    // address => [account, account, account]\r\n    // name => address\r\n\r\n    struct AccountStruct {\r\n        address addr;\r\n        string name;\r\n        uint256 balance;\r\n        bool isExisted;\r\n        // mapping(uint256 => TransactionStruct) transactionHistory;\r\n        // uint256 transactionLength;\r\n        // string[] transactionList;\r\n        TransactionStruct[] transactionHistory;\r\n    }\r\n\r\n    constructor() {\r\n        bank = payable(msg.sender);\r\n    }\r\n\r\n    // mapping (address => AccountStruct) private AccountsRecord;\r\n    mapping(string => AccountStruct) private AccountsRecord;\r\n    mapping(address => string[]) private AccountsAddrRecord;\r\n\r\n    function CreateAccount(string memory accountName) public {\r\n        require(AccountsRecord[accountName].isExisted != true);\r\n        AccountsAddrRecord[msg.sender].push(accountName);\r\n        // TransactionStruct[] memory transactionHistory;\r\n        // TransactionStruct[] storage transactionHistory;\r\n        AccountStruct storage _acc = AccountsRecord[accountName];\r\n        _acc.name = accountName;\r\n        _acc.balance = 0;\r\n        _acc.isExisted = true;\r\n        _acc.addr = msg.sender;\r\n        // AccountsRecord[accountName] = _acc;\r\n        // AccountsRecord[accountName] = AccountStruct({\r\n        //     name: accountName,\r\n        //     balance: 0,\r\n        //     isExisted: true,\r\n        //     addr: msg.sender\r\n        //     // transactionHistory: []\r\n        //     // transactionLength:\r\n        // });\r\n    }\r\n\r\n    function Deposit(string memory accountName) public payable {\r\n        require(AccountsRecord[accountName].isExisted);\r\n        uint256 amountToAdd = msg.value - tx.gasprice;\r\n        AccountsRecord[accountName].balance += amountToAdd;\r\n        AccountsRecord[accountName].transactionHistory.push(\r\n            TransactionStruct({\r\n                sender: \"\",\r\n                receiver: accountName,\r\n                txvalue: msg.value,\r\n                amount: amountToAdd,\r\n                feeCollected: false,\r\n                toBank: true,\r\n                timestamp: block.timestamp\r\n            })\r\n        );\r\n    }\r\n\r\n    function Withdraw(string memory accountName, uint256 amount) public {\r\n        // string memory accountName = AccountsAddrRecord[msg.sender];\r\n        require(AccountsRecord[accountName].isExisted);\r\n        require(AccountsRecord[accountName].addr == msg.sender);\r\n        require(AccountsRecord[accountName].balance >= amount);\r\n        AccountsRecord[accountName].balance -= amount;\r\n        bank.transfer(amount);\r\n        AccountsRecord[accountName].transactionHistory.push(\r\n            TransactionStruct({\r\n                sender: accountName,\r\n                receiver: \"\",\r\n                txvalue: amount,\r\n                amount: amount,\r\n                feeCollected: false,\r\n                toBank: true,\r\n                timestamp: block.timestamp\r\n            })\r\n        );\r\n    }\r\n\r\n    function compareStrings(string memory a, string memory b)\r\n        private\r\n        pure\r\n        returns (bool)\r\n    {\r\n        return (keccak256(abi.encodePacked((a))) ==\r\n            keccak256(abi.encodePacked((b))));\r\n    }\r\n\r\n    function Transfer(\r\n        string memory _accountName,\r\n        string memory _targetAccName,\r\n        uint256 amount\r\n    ) public {\r\n        AccountStruct storage _senderAcc = AccountsRecord[_accountName];\r\n        AccountStruct storage _targetAcc = AccountsRecord[_targetAccName];\r\n        require(_senderAcc.isExisted);\r\n        require(_senderAcc.addr == msg.sender);\r\n        require(_senderAcc.balance >= amount);\r\n        require(!compareStrings(_accountName, _targetAccName));\r\n        uint256 amountToAdd = amount;\r\n        bool feeCollected = false;\r\n        if (_senderAcc.addr != _targetAcc.addr) {\r\n            amountToAdd = (amount * 99) / 100;\r\n            feeCollected = true;\r\n        }\r\n        _senderAcc.balance -= amount;\r\n        _targetAcc.balance += amountToAdd;\r\n        TransactionStruct memory _transaction = TransactionStruct({\r\n            sender: _accountName,\r\n            receiver: _targetAccName,\r\n            txvalue: amount,\r\n            amount: amountToAdd,\r\n            feeCollected: feeCollected,\r\n            toBank: false,\r\n            timestamp: block.timestamp\r\n        });\r\n        AccountsRecord[_accountName].transactionHistory.push(_transaction);\r\n        AccountsRecord[_targetAccName].transactionHistory.push(_transaction);\r\n    }\r\n\r\n    function BulkTransfer(\r\n        string memory _accountName,\r\n        string[] memory _targetAccsName,\r\n        uint256 amount\r\n    ) public {\r\n        require(AccountsRecord[_accountName].isExisted);\r\n        require(AccountsRecord[_accountName].addr == msg.sender);\r\n        uint256 _totalAmount = amount * _targetAccsName.length;\r\n        require(AccountsRecord[_accountName].balance >= _totalAmount);\r\n        // AccountsRecord[_accountName].balance -= _totalAmount;\r\n        uint256 _i;\r\n        for (_i = 0; _i < _targetAccsName.length; _i++) {\r\n            this.Transfer(_accountName, _targetAccsName[_i], amount);\r\n        }\r\n        // AccountsRecord[targetAccName].balance += amount;\r\n    }\r\n\r\n    function GetAccountsInfo(string memory _accountName)\r\n        public\r\n        view\r\n        returns (AccountStruct memory)\r\n    {\r\n        require(AccountsRecord[_accountName].addr == msg.sender);\r\n        AccountStruct memory _payload = AccountsRecord[_accountName];\r\n        return _payload;\r\n    }\r\n\r\n    function GetAccountsList() public view returns (string[] memory) {\r\n        string[] memory _AccNameList = AccountsAddrRecord[msg.sender];\r\n        return _AccNameList;\r\n    }\r\n}\r\n",
  "sourcePath": "C:\\Users\\ironp\\hackathon\\scb10x-bank\\contracts\\AccountWithTx.sol",
  "compiler": {
    "name": "solc",
    "version": "0.8.15+commit.e14f2714.Emscripten.clang"
  },
  "schemaVersion": "3.4.8",
  "updatedAt": "2022-07-08T15:31:52.288Z",
  "devdoc": {
    "kind": "dev",
    "methods": {},
    "version": 1
  },
  "userdoc": {
    "kind": "user",
    "methods": {},
    "version": 1
  }
}