{
  "contractName": "Bank",
  "abi": [
    {
      "inputs": [],
      "stateMutability": "nonpayable",
      "type": "constructor"
    },
    {
      "inputs": [],
      "name": "ToOwner",
      "outputs": [],
      "stateMutability": "nonpayable",
      "type": "function"
    },
    {
      "inputs": [
        {
          "internalType": "string",
          "name": "accountName",
          "type": "string"
        }
      ],
      "name": "CreateAccount",
      "outputs": [],
      "stateMutability": "nonpayable",
      "type": "function"
    },
    {
      "inputs": [
        {
          "internalType": "string",
          "name": "accountName",
          "type": "string"
        }
      ],
      "name": "Deposit",
      "outputs": [],
      "stateMutability": "payable",
      "type": "function",
      "payable": true
    },
    {
      "inputs": [
        {
          "internalType": "string",
          "name": "accountName",
          "type": "string"
        },
        {
          "internalType": "uint256",
          "name": "amount",
          "type": "uint256"
        }
      ],
      "name": "Withdraw",
      "outputs": [],
      "stateMutability": "nonpayable",
      "type": "function"
    },
    {
      "inputs": [
        {
          "internalType": "string",
          "name": "_accountName",
          "type": "string"
        },
        {
          "internalType": "string[]",
          "name": "_targetAccsName",
          "type": "string[]"
        },
        {
          "internalType": "uint256",
          "name": "amount",
          "type": "uint256"
        }
      ],
      "name": "BulkTransfer",
      "outputs": [],
      "stateMutability": "nonpayable",
      "type": "function"
    },
    {
      "inputs": [
        {
          "internalType": "string",
          "name": "_accountName",
          "type": "string"
        }
      ],
      "name": "GetAccountsInfo",
      "outputs": [
        {
          "components": [
            {
              "internalType": "address",
              "name": "addr",
              "type": "address"
            },
            {
              "internalType": "string",
              "name": "name",
              "type": "string"
            },
            {
              "internalType": "uint256",
              "name": "balance",
              "type": "uint256"
            },
            {
              "internalType": "bool",
              "name": "isExisted",
              "type": "bool"
            },
            {
              "components": [
                {
                  "internalType": "string",
                  "name": "sender",
                  "type": "string"
                },
                {
                  "internalType": "string",
                  "name": "receiver",
                  "type": "string"
                },
                {
                  "internalType": "uint256",
                  "name": "txvalue",
                  "type": "uint256"
                },
                {
                  "internalType": "uint256",
                  "name": "amount",
                  "type": "uint256"
                },
                {
                  "internalType": "bool",
                  "name": "feeCollected",
                  "type": "bool"
                },
                {
                  "internalType": "bool",
                  "name": "toBank",
                  "type": "bool"
                },
                {
                  "internalType": "uint256",
                  "name": "timestamp",
                  "type": "uint256"
                }
              ],
              "internalType": "struct Bank.TransactionStruct[]",
              "name": "transactionHistory",
              "type": "tuple[]"
            }
          ],
          "internalType": "struct Bank.AccountStruct",
          "name": "",
          "type": "tuple"
        }
      ],
      "stateMutability": "view",
      "type": "function",
      "constant": true
    },
    {
      "inputs": [],
      "name": "GetAccountsList",
      "outputs": [
        {
          "internalType": "string[]",
          "name": "",
          "type": "string[]"
        }
      ],
      "stateMutability": "view",
      "type": "function",
      "constant": true
    }
  ],
  "bytecode": "0x608060405234801561001057600080fd5b5033600160006101000a81548173ffffffffffffffffffffffffffffffffffffffff021916908373ffffffffffffffffffffffffffffffffffffffff160217905550612726806100616000396000f3fe6080604052600436106100705760003560e01c8063b21287ae1161004e578063b21287ae146100f9578063d5aced6c14610110578063ef6a4fe014610139578063fd950f751461016257610070565b806380dfa405146100755780638a74696d146100915780638f6befe2146100bc575b600080fd5b61008f600480360381019061008a919061175f565b61018b565b005b34801561009d57600080fd5b506100a6610412565b6040516100b391906118f2565b60405180910390f35b3480156100c857600080fd5b506100e360048036038101906100de919061175f565b61052e565b6040516100f09190611b6b565b60405180910390f35b34801561010557600080fd5b5061010e6108ff565b005b34801561011c57600080fd5b5061013760048036038101906101329190611c9f565b6109c4565b005b34801561014557600080fd5b50610160600480360381019061015b919061175f565b610be4565b005b34801561016e57600080fd5b5061018960048036038101906101849190611d2a565b610d6d565b005b60028160405161019b9190611dc2565b908152602001604051809103902060030160009054906101000a900460ff166101f9576040517f08c379a00000000000000000000000000000000000000000000000000000000081526004016101f090611e36565b60405180910390fd5b3373ffffffffffffffffffffffffffffffffffffffff166002826040516102209190611dc2565b908152602001604051809103902060000160009054906101000a900473ffffffffffffffffffffffffffffffffffffffff1673ffffffffffffffffffffffffffffffffffffffff16146102a8576040517f08c379a000000000000000000000000000000000000000000000000000000000815260040161029f90611ec8565b60405180910390fd5b60003a346102b69190611f17565b9050806002836040516102c99190611dc2565b908152602001604051809103902060020160008282546102e99190611f4b565b925050819055506002826040516103009190611dc2565b90815260200160405180910390206004016040518060e00160405280604051806020016040528060008152508152602001848152602001348152602001838152602001600015158152602001600115158152602001428152509080600181540180825580915050600190039060005260206000209060060201600090919091909150600082015181600001908161039791906121ad565b5060208201518160010190816103ad91906121ad565b50604082015181600201556060820151816003015560808201518160040160006101000a81548160ff02191690831515021790555060a08201518160040160016101000a81548160ff02191690831515021790555060c0820151816005015550505050565b60606000600360003373ffffffffffffffffffffffffffffffffffffffff1673ffffffffffffffffffffffffffffffffffffffff168152602001908152602001600020805480602002602001604051908101604052809291908181526020016000905b8282101561052157838290600052602060002001805461049490611fd0565b80601f01602080910402602001604051908101604052809291908181526020018280546104c090611fd0565b801561050d5780601f106104e25761010080835404028352916020019161050d565b820191906000526020600020905b8154815290600101906020018083116104f057829003601f168201915b505050505081526020019060010190610475565b5050505090508091505090565b6105366115be565b3373ffffffffffffffffffffffffffffffffffffffff1660028360405161055d9190611dc2565b908152602001604051809103902060000160009054906101000a900473ffffffffffffffffffffffffffffffffffffffff1673ffffffffffffffffffffffffffffffffffffffff16146105e5576040517f08c379a00000000000000000000000000000000000000000000000000000000081526004016105dc906122f1565b60405180910390fd5b60006002836040516105f79190611dc2565b90815260200160405180910390206040518060a00160405290816000820160009054906101000a900473ffffffffffffffffffffffffffffffffffffffff1673ffffffffffffffffffffffffffffffffffffffff1673ffffffffffffffffffffffffffffffffffffffff16815260200160018201805461067690611fd0565b80601f01602080910402602001604051908101604052809291908181526020018280546106a290611fd0565b80156106ef5780601f106106c4576101008083540402835291602001916106ef565b820191906000526020600020905b8154815290600101906020018083116106d257829003601f168201915b50505050508152602001600282015481526020016003820160009054906101000a900460ff1615151515815260200160048201805480602002602001604051908101604052809291908181526020016000905b828210156108ec57838290600052602060002090600602016040518060e001604052908160008201805461077590611fd0565b80601f01602080910402602001604051908101604052809291908181526020018280546107a190611fd0565b80156107ee5780601f106107c3576101008083540402835291602001916107ee565b820191906000526020600020905b8154815290600101906020018083116107d157829003601f168201915b5050505050815260200160018201805461080790611fd0565b80601f016020809104026020016040519081016040528092919081815260200182805461083390611fd0565b80156108805780601f1061085557610100808354040283529160200191610880565b820191906000526020600020905b81548152906001019060200180831161086357829003601f168201915b5050505050815260200160028201548152602001600382015481526020016004820160009054906101000a900460ff161515151581526020016004820160019054906101000a900460ff1615151515815260200160058201548152505081526020019060010190610742565b5050505081525050905080915050919050565b600160009054906101000a900473ffffffffffffffffffffffffffffffffffffffff1673ffffffffffffffffffffffffffffffffffffffff163373ffffffffffffffffffffffffffffffffffffffff161461095957600080fd5b600160009054906101000a900473ffffffffffffffffffffffffffffffffffffffff1673ffffffffffffffffffffffffffffffffffffffff166108fc479081150290604051600060405180830381858888f193505050501580156109c1573d6000803e3d6000fd5b50565b6002836040516109d49190611dc2565b908152602001604051809103902060030160009054906101000a900460ff16610a32576040517f08c379a0000000000000000000000000000000000000000000000000000000008152600401610a2990611e36565b60405180910390fd5b3373ffffffffffffffffffffffffffffffffffffffff16600284604051610a599190611dc2565b908152602001604051809103902060000160009054906101000a900473ffffffffffffffffffffffffffffffffffffffff1673ffffffffffffffffffffffffffffffffffffffff1614610ae1576040517f08c379a0000000000000000000000000000000000000000000000000000000008152600401610ad890611ec8565b60405180910390fd5b60008111610b24576040517f08c379a0000000000000000000000000000000000000000000000000000000008152600401610b1b9061235d565b60405180910390fd5b6000825182610b33919061237d565b905080600285604051610b469190611dc2565b9081526020016040518091039020600201541015610b99576040517f08c379a0000000000000000000000000000000000000000000000000000000008152600401610b9090612449565b60405180910390fd5b60005b8351811015610bdd57610bca85858381518110610bbc57610bbb612469565b5b602002602001015185611115565b8080610bd590612498565b915050610b9c565b5050505050565b60011515600282604051610bf89190611dc2565b908152602001604051809103902060030160009054906101000a900460ff16151503610c59576040517f08c379a0000000000000000000000000000000000000000000000000000000008152600401610c509061252c565b60405180910390fd5b600360003373ffffffffffffffffffffffffffffffffffffffff1673ffffffffffffffffffffffffffffffffffffffff16815260200190815260200160002081908060018154018082558091505060019003906000526020600020016000909190919091509081610cca91906121ad565b506000600282604051610cdd9190611dc2565b9081526020016040518091039020905081816001019081610cfe91906121ad565b506000816002018190555060018160030160006101000a81548160ff021916908315150217905550338160000160006101000a81548173ffffffffffffffffffffffffffffffffffffffff021916908373ffffffffffffffffffffffffffffffffffffffff1602179055505050565b600282604051610d7d9190611dc2565b908152602001604051809103902060030160009054906101000a900460ff16610ddb576040517f08c379a0000000000000000000000000000000000000000000000000000000008152600401610dd290611e36565b60405180910390fd5b3373ffffffffffffffffffffffffffffffffffffffff16600283604051610e029190611dc2565b908152602001604051809103902060000160009054906101000a900473ffffffffffffffffffffffffffffffffffffffff1673ffffffffffffffffffffffffffffffffffffffff1614610e8a576040517f08c379a0000000000000000000000000000000000000000000000000000000008152600401610e8190611ec8565b60405180910390fd5b60008111610ecd576040517f08c379a0000000000000000000000000000000000000000000000000000000008152600401610ec49061235d565b60405180910390fd5b80600283604051610ede9190611dc2565b9081526020016040518091039020600201541015610f31576040517f08c379a0000000000000000000000000000000000000000000000000000000008152600401610f2890612449565b60405180910390fd5b80471015610f74576040517f08c379a0000000000000000000000000000000000000000000000000000000008152600401610f6b90612598565b60405180910390fd5b80600283604051610f859190611dc2565b90815260200160405180910390206002016000828254610fa59190611f17565b925050819055503373ffffffffffffffffffffffffffffffffffffffff166108fc829081150290604051600060405180830381858888f19350505050158015610ff2573d6000803e3d6000fd5b506002826040516110039190611dc2565b90815260200160405180910390206004016040518060e00160405280848152602001604051806020016040528060008152508152602001838152602001838152602001600015158152602001600115158152602001428152509080600181540180825580915050600190039060005260206000209060060201600090919091909150600082015181600001908161109a91906121ad565b5060208201518160010190816110b091906121ad565b50604082015181600201556060820151816003015560808201518160040160006101000a81548160ff02191690831515021790555060a08201518160040160016101000a81548160ff02191690831515021790555060c0820151816005015550505050565b60006002846040516111279190611dc2565b9081526020016040518091039020905060006002846040516111499190611dc2565b908152602001604051809103902090508160030160009054906101000a900460ff166111aa576040517f08c379a00000000000000000000000000000000000000000000000000000000081526004016111a190612604565b60405180910390fd5b8060030160009054906101000a900460ff166111fb576040517f08c379a00000000000000000000000000000000000000000000000000000000081526004016111f290612670565b60405180910390fd5b6000831161123e576040517f08c379a00000000000000000000000000000000000000000000000000000000081526004016112359061235d565b60405180910390fd5b8282600201541015611285576040517f08c379a000000000000000000000000000000000000000000000000000000000815260040161127c90612449565b60405180910390fd5b61128f8585611565565b1561129957600080fd5b600083905060008260000160009054906101000a900473ffffffffffffffffffffffffffffffffffffffff1673ffffffffffffffffffffffffffffffffffffffff168460000160009054906101000a900473ffffffffffffffffffffffffffffffffffffffff1673ffffffffffffffffffffffffffffffffffffffff161461133b57606460638661132a919061237d565b61133491906126bf565b9150600190505b8484600201600082825461134f9190611f17565b925050819055508183600201600082825461136a9190611f4b565b9250508190555060006040518060e0016040528089815260200188815260200187815260200184815260200183151581526020016000151581526020014281525090506002886040516113bd9190611dc2565b9081526020016040518091039020600401819080600181540180825580915050600190039060005260206000209060060201600090919091909150600082015181600001908161140d91906121ad565b50602082015181600101908161142391906121ad565b50604082015181600201556060820151816003015560808201518160040160006101000a81548160ff02191690831515021790555060a08201518160040160016101000a81548160ff02191690831515021790555060c0820151816005015550506002876040516114949190611dc2565b908152602001604051809103902060040181908060018154018082558091505060019003906000526020600020906006020160009091909190915060008201518160000190816114e491906121ad565b5060208201518160010190816114fa91906121ad565b50604082015181600201556060820151816003015560808201518160040160006101000a81548160ff02191690831515021790555060a08201518160040160016101000a81548160ff02191690831515021790555060c0820151816005015550505050505050505050565b6000816040516020016115789190611dc2565b604051602081830303815290604052805190602001208360405160200161159f9190611dc2565b6040516020818303038152906040528051906020012014905092915050565b6040518060a00160405280600073ffffffffffffffffffffffffffffffffffffffff1681526020016060815260200160008152602001600015158152602001606081525090565b6000604051905090565b600080fd5b600080fd5b600080fd5b600080fd5b6000601f19601f8301169050919050565b7f4e487b7100000000000000000000000000000000000000000000000000000000600052604160045260246000fd5b61166c82611623565b810181811067ffffffffffffffff8211171561168b5761168a611634565b5b80604052505050565b600061169e611605565b90506116aa8282611663565b919050565b600067ffffffffffffffff8211156116ca576116c9611634565b5b6116d382611623565b9050602081019050919050565b82818337600083830152505050565b60006117026116fd846116af565b611694565b90508281526020810184848401111561171e5761171d61161e565b5b6117298482856116e0565b509392505050565b600082601f83011261174657611745611619565b5b81356117568482602086016116ef565b91505092915050565b6000602082840312156117755761177461160f565b5b600082013567ffffffffffffffff81111561179357611792611614565b5b61179f84828501611731565b91505092915050565b600081519050919050565b600082825260208201905092915050565b6000819050602082019050919050565b600081519050919050565b600082825260208201905092915050565b60005b8381101561180e5780820151818401526020810190506117f3565b8381111561181d576000848401525b50505050565b600061182e826117d4565b61183881856117df565b93506118488185602086016117f0565b61185181611623565b840191505092915050565b60006118688383611823565b905092915050565b6000602082019050919050565b6000611888826117a8565b61189281856117b3565b9350836020820285016118a4856117c4565b8060005b858110156118e057848403895281516118c1858261185c565b94506118cc83611870565b925060208a019950506001810190506118a8565b50829750879550505050505092915050565b6000602082019050818103600083015261190c818461187d565b905092915050565b600073ffffffffffffffffffffffffffffffffffffffff82169050919050565b600061193f82611914565b9050919050565b61194f81611934565b82525050565b6000819050919050565b61196881611955565b82525050565b60008115159050919050565b6119838161196e565b82525050565b600081519050919050565b600082825260208201905092915050565b6000819050602082019050919050565b600060e08301600083015184820360008601526119d28282611823565b915050602083015184820360208601526119ec8282611823565b9150506040830151611a01604086018261195f565b506060830151611a14606086018261195f565b506080830151611a27608086018261197a565b5060a0830151611a3a60a086018261197a565b5060c0830151611a4d60c086018261195f565b508091505092915050565b6000611a6483836119b5565b905092915050565b6000602082019050919050565b6000611a8482611989565b611a8e8185611994565b935083602082028501611aa0856119a5565b8060005b85811015611adc5784840389528151611abd8582611a58565b9450611ac883611a6c565b925060208a01995050600181019050611aa4565b50829750879550505050505092915050565b600060a083016000830151611b066000860182611946565b5060208301518482036020860152611b1e8282611823565b9150506040830151611b33604086018261195f565b506060830151611b46606086018261197a565b5060808301518482036080860152611b5e8282611a79565b9150508091505092915050565b60006020820190508181036000830152611b858184611aee565b905092915050565b600067ffffffffffffffff821115611ba857611ba7611634565b5b602082029050602081019050919050565b600080fd5b6000611bd1611bcc84611b8d565b611694565b90508083825260208201905060208402830185811115611bf457611bf3611bb9565b5b835b81811015611c3b57803567ffffffffffffffff811115611c1957611c18611619565b5b808601611c268982611731565b85526020850194505050602081019050611bf6565b5050509392505050565b600082601f830112611c5a57611c59611619565b5b8135611c6a848260208601611bbe565b91505092915050565b611c7c81611955565b8114611c8757600080fd5b50565b600081359050611c9981611c73565b92915050565b600080600060608486031215611cb857611cb761160f565b5b600084013567ffffffffffffffff811115611cd657611cd5611614565b5b611ce286828701611731565b935050602084013567ffffffffffffffff811115611d0357611d02611614565b5b611d0f86828701611c45565b9250506040611d2086828701611c8a565b9150509250925092565b60008060408385031215611d4157611d4061160f565b5b600083013567ffffffffffffffff811115611d5f57611d5e611614565b5b611d6b85828601611731565b9250506020611d7c85828601611c8a565b9150509250929050565b600081905092915050565b6000611d9c826117d4565b611da68185611d86565b9350611db68185602086016117f0565b80840191505092915050565b6000611dce8284611d91565b915081905092915050565b600082825260208201905092915050565b7f4163636f756e7420646f6573206e6f7420657869737400000000000000000000600082015250565b6000611e20601683611dd9565b9150611e2b82611dea565b602082019050919050565b60006020820190508181036000830152611e4f81611e13565b9050919050565b7f4163636f756e7420646f6573206e6f742062656c6f6e6720746f20746869732060008201527f6164647265737300000000000000000000000000000000000000000000000000602082015250565b6000611eb2602783611dd9565b9150611ebd82611e56565b604082019050919050565b60006020820190508181036000830152611ee181611ea5565b9050919050565b7f4e487b7100000000000000000000000000000000000000000000000000000000600052601160045260246000fd5b6000611f2282611955565b9150611f2d83611955565b925082821015611f4057611f3f611ee8565b5b828203905092915050565b6000611f5682611955565b9150611f6183611955565b9250827fffffffffffffffffffffffffffffffffffffffffffffffffffffffffffffffff03821115611f9657611f95611ee8565b5b828201905092915050565b7f4e487b7100000000000000000000000000000000000000000000000000000000600052602260045260246000fd5b60006002820490506001821680611fe857607f821691505b602082108103611ffb57611ffa611fa1565b5b50919050565b60008190508160005260206000209050919050565b60006020601f8301049050919050565b600082821b905092915050565b6000600883026120637fffffffffffffffffffffffffffffffffffffffffffffffffffffffffffffffff82612026565b61206d8683612026565b95508019841693508086168417925050509392505050565b6000819050919050565b60006120aa6120a56120a084611955565b612085565b611955565b9050919050565b6000819050919050565b6120c48361208f565b6120d86120d0826120b1565b848454612033565b825550505050565b600090565b6120ed6120e0565b6120f88184846120bb565b505050565b5b8181101561211c576121116000826120e5565b6001810190506120fe565b5050565b601f8211156121615761213281612001565b61213b84612016565b8101602085101561214a578190505b61215e61215685612016565b8301826120fd565b50505b505050565b600082821c905092915050565b600061218460001984600802612166565b1980831691505092915050565b600061219d8383612173565b9150826002028217905092915050565b6121b6826117d4565b67ffffffffffffffff8111156121cf576121ce611634565b5b6121d98254611fd0565b6121e4828285612120565b600060209050601f8311600181146122175760008415612205578287015190505b61220f8582612191565b865550612277565b601f19841661222586612001565b60005b8281101561224d57848901518255600182019150602085019450602081019050612228565b8683101561226a5784890151612266601f891682612173565b8355505b6001600288020188555050505b505050505050565b7f4163636f756e7420646f65732062656c6f6e6720746f2074686973206164647260008201527f6573730000000000000000000000000000000000000000000000000000000000602082015250565b60006122db602383611dd9565b91506122e68261227f565b604082019050919050565b6000602082019050818103600083015261230a816122ce565b9050919050565b7f416d6f756e7420697320696e76616c6964000000000000000000000000000000600082015250565b6000612347601183611dd9565b915061235282612311565b602082019050919050565b600060208201905081810360008301526123768161233a565b9050919050565b600061238882611955565b915061239383611955565b9250817fffffffffffffffffffffffffffffffffffffffffffffffffffffffffffffffff04831182151516156123cc576123cb611ee8565b5b828202905092915050565b7f496e73756666696369656e742062616c616e6365206f6e20746869732061636360008201527f6f756e7400000000000000000000000000000000000000000000000000000000602082015250565b6000612433602483611dd9565b915061243e826123d7565b604082019050919050565b6000602082019050818103600083015261246281612426565b9050919050565b7f4e487b7100000000000000000000000000000000000000000000000000000000600052603260045260246000fd5b60006124a382611955565b91507fffffffffffffffffffffffffffffffffffffffffffffffffffffffffffffffff82036124d5576124d4611ee8565b5b600182019050919050565b7f4163636f756e7420616c72656164792065786973747300000000000000000000600082015250565b6000612516601683611dd9565b9150612521826124e0565b602082019050919050565b6000602082019050818103600083015261254581612509565b9050919050565b7f696e7465726e616c206166666169727300000000000000000000000000000000600082015250565b6000612582601083611dd9565b915061258d8261254c565b602082019050919050565b600060208201905081810360008301526125b181612575565b9050919050565b7f53656e646572204163636f756e7420646f6573206e6f74206578697374000000600082015250565b60006125ee601d83611dd9565b91506125f9826125b8565b602082019050919050565b6000602082019050818103600083015261261d816125e1565b9050919050565b7f5265636569766572204163636f756e7420646f6573206e6f7420657869737400600082015250565b600061265a601f83611dd9565b915061266582612624565b602082019050919050565b600060208201905081810360008301526126898161264d565b9050919050565b7f4e487b7100000000000000000000000000000000000000000000000000000000600052601260045260246000fd5b60006126ca82611955565b91506126d583611955565b9250826126e5576126e4612690565b5b82820490509291505056fea26469706673582212208991892069957a0d74feb7f41005f57e7dbbe5d9ac306d981766fd88671ae39d64736f6c634300080f0033",
  "immutableReferences": {},
  "source": "// SPDX-License-Identifier: MIT\r\npragma solidity >=0.4.22 <0.9.0;\r\n\r\ncontract Bank {\r\n    address[] private addresses;\r\n    address payable private bank;\r\n\r\n    struct TransactionStruct {\r\n        string sender;\r\n        string receiver;\r\n        uint256 txvalue;\r\n        uint256 amount;\r\n        bool feeCollected;\r\n        bool toBank;\r\n        uint256 timestamp;\r\n    }\r\n    // name => account\r\n    // address => [name, name, name]\r\n\r\n    // address => [account, account, account]\r\n    // name => address\r\n\r\n    struct AccountStruct {\r\n        address addr;\r\n        string name;\r\n        uint256 balance;\r\n        bool isExisted;\r\n        // mapping(uint256 => TransactionStruct) transactionHistory;\r\n        // uint256 transactionLength;\r\n        // string[] transactionList;\r\n        TransactionStruct[] transactionHistory;\r\n    }\r\n\r\n    constructor() {\r\n        bank = payable(msg.sender);\r\n    }\r\n\r\n    // mapping (address => AccountStruct) private AccountsRecord;\r\n    mapping(string => AccountStruct) private AccountsRecord;\r\n    mapping(address => string[]) private AccountsAddrRecord;\r\n\r\n    function ToOwner() public {\r\n        require(msg.sender == bank);\r\n        bank.transfer(address(this).balance);\r\n    }\r\n\r\n    function CreateAccount(string memory accountName) public {\r\n        require(\r\n            AccountsRecord[accountName].isExisted != true,\r\n            \"Account already exists\"\r\n        );\r\n        AccountsAddrRecord[msg.sender].push(accountName);\r\n        // TransactionStruct[] memory transactionHistory;\r\n        // TransactionStruct[] storage transactionHistory;\r\n        AccountStruct storage _acc = AccountsRecord[accountName];\r\n        _acc.name = accountName;\r\n        _acc.balance = 0;\r\n        _acc.isExisted = true;\r\n        _acc.addr = msg.sender;\r\n        // AccountsRecord[accountName] = _acc;\r\n        // AccountsRecord[accountName] = AccountStruct({\r\n        //     name: accountName,\r\n        //     balance: 0,\r\n        //     isExisted: true,\r\n        //     addr: msg.sender\r\n        //     // transactionHistory: []\r\n        //     // transactionLength:\r\n        // });\r\n    }\r\n\r\n    function Deposit(string memory accountName) public payable {\r\n        require(\r\n            AccountsRecord[accountName].isExisted,\r\n            \"Account does not exist\"\r\n        );\r\n        require(\r\n            AccountsRecord[accountName].addr == msg.sender,\r\n            \"Account does not belong to this address\"\r\n        );\r\n        uint256 amountToAdd = msg.value - tx.gasprice;\r\n        AccountsRecord[accountName].balance += amountToAdd;\r\n        AccountsRecord[accountName].transactionHistory.push(\r\n            TransactionStruct({\r\n                sender: \"\",\r\n                receiver: accountName,\r\n                txvalue: msg.value,\r\n                amount: amountToAdd,\r\n                feeCollected: false,\r\n                toBank: true,\r\n                timestamp: block.timestamp\r\n            })\r\n        );\r\n        // toOwner();\r\n    }\r\n\r\n    function Withdraw(string memory accountName, uint256 amount) public {\r\n        // string memory accountName = AccountsAddrRecord[msg.sender];\r\n        require(\r\n            AccountsRecord[accountName].isExisted,\r\n            \"Account does not exist\"\r\n        );\r\n        require(\r\n            AccountsRecord[accountName].addr == msg.sender,\r\n            \"Account does not belong to this address\"\r\n        );\r\n        require(amount > 0, \"Amount is invalid\");\r\n        require(\r\n            AccountsRecord[accountName].balance >= amount,\r\n            \"Insufficient balance on this account\"\r\n        );\r\n\r\n        require(address(this).balance >= amount, \"internal affairs\");\r\n        AccountsRecord[accountName].balance -= amount;\r\n        payable(msg.sender).transfer(amount);\r\n        AccountsRecord[accountName].transactionHistory.push(\r\n            TransactionStruct({\r\n                sender: accountName,\r\n                receiver: \"\",\r\n                txvalue: amount,\r\n                amount: amount,\r\n                feeCollected: false,\r\n                toBank: true,\r\n                timestamp: block.timestamp\r\n            })\r\n        );\r\n    }\r\n\r\n    function compareStrings(string memory a, string memory b)\r\n        private\r\n        pure\r\n        returns (bool)\r\n    {\r\n        return (keccak256(abi.encodePacked((a))) ==\r\n            keccak256(abi.encodePacked((b))));\r\n    }\r\n\r\n    function Transfer(\r\n        string memory _accountName,\r\n        string memory _targetAccName,\r\n        uint256 amount\r\n    ) private {\r\n        AccountStruct storage _senderAcc = AccountsRecord[_accountName];\r\n        AccountStruct storage _targetAcc = AccountsRecord[_targetAccName];\r\n        require(_senderAcc.isExisted, \"Sender Account does not exist\");\r\n        require(_targetAcc.isExisted, \"Receiver Account does not exist\");\r\n        // require(\r\n        //     _senderAcc.addr == msg.sender,\r\n        //     \"Account does not belong to this address\"\r\n        // );\r\n        require(amount > 0, \"Amount is invalid\");\r\n        require(\r\n            _senderAcc.balance >= amount,\r\n            \"Insufficient balance on this account\"\r\n        );\r\n        require(!compareStrings(_accountName, _targetAccName));\r\n        uint256 amountToAdd = amount;\r\n        bool feeCollected = false;\r\n        if (_senderAcc.addr != _targetAcc.addr) {\r\n            amountToAdd = (amount * 99) / 100;\r\n            feeCollected = true;\r\n        }\r\n        _senderAcc.balance -= amount;\r\n        _targetAcc.balance += amountToAdd;\r\n        TransactionStruct memory _transaction = TransactionStruct({\r\n            sender: _accountName,\r\n            receiver: _targetAccName,\r\n            txvalue: amount,\r\n            amount: amountToAdd,\r\n            feeCollected: feeCollected,\r\n            toBank: false,\r\n            timestamp: block.timestamp\r\n        });\r\n        AccountsRecord[_accountName].transactionHistory.push(_transaction);\r\n        AccountsRecord[_targetAccName].transactionHistory.push(_transaction);\r\n    }\r\n\r\n    function BulkTransfer(\r\n        string memory _accountName,\r\n        string[] memory _targetAccsName,\r\n        uint256 amount\r\n    ) public {\r\n        require(\r\n            AccountsRecord[_accountName].isExisted,\r\n            \"Account does not exist\"\r\n        );\r\n        require(\r\n            AccountsRecord[_accountName].addr == msg.sender,\r\n            \"Account does not belong to this address\"\r\n        );\r\n        require(amount > 0, \"Amount is invalid\");\r\n        uint256 _totalAmount = amount * _targetAccsName.length;\r\n        require(\r\n            AccountsRecord[_accountName].balance >= _totalAmount,\r\n            \"Insufficient balance on this account\"\r\n        );\r\n        // AccountsRecord[_accountName].balance -= _totalAmount;\r\n        uint256 _i;\r\n        for (_i = 0; _i < _targetAccsName.length; _i++) {\r\n            Transfer(_accountName, _targetAccsName[_i], amount);\r\n        }\r\n        // AccountsRecord[targetAccName].balance += amount;\r\n    }\r\n\r\n    function GetAccountsInfo(string memory _accountName)\r\n        public\r\n        view\r\n        returns (AccountStruct memory)\r\n    {\r\n        require(\r\n            AccountsRecord[_accountName].addr == msg.sender,\r\n            \"Account does belong to this address\"\r\n        );\r\n        AccountStruct memory _payload = AccountsRecord[_accountName];\r\n        return _payload;\r\n    }\r\n\r\n    function GetAccountsList() public view returns (string[] memory) {\r\n        string[] memory _AccNameList = AccountsAddrRecord[msg.sender];\r\n        return _AccNameList;\r\n    }\r\n}\r\n",
  "sourcePath": "C:\\Users\\ironp\\hackathon\\scb10x-bank\\contracts\\Account.sol",
  "compiler": {
    "name": "solc",
    "version": "0.8.15+commit.e14f2714.Emscripten.clang"
  },
  "schemaVersion": "3.4.8",
  "updatedAt": "2022-07-10T15:45:25.347Z",
  "networkType": "ethereum",
  "devdoc": {
    "kind": "dev",
    "methods": {},
    "version": 1
  },
  "userdoc": {
    "kind": "user",
    "methods": {},
    "version": 1
  }
}