{
  "contractName": "Bank",
  "abi": [
    {
      "inputs": [],
      "stateMutability": "nonpayable",
      "type": "constructor"
    },
    {
      "inputs": [
        {
          "internalType": "string",
          "name": "accountName",
          "type": "string"
        }
      ],
      "name": "CreateAccount",
      "outputs": [],
      "stateMutability": "nonpayable",
      "type": "function"
    },
    {
      "inputs": [
        {
          "internalType": "string",
          "name": "accountName",
          "type": "string"
        }
      ],
      "name": "Deposit",
      "outputs": [],
      "stateMutability": "payable",
      "type": "function",
      "payable": true
    },
    {
      "inputs": [
        {
          "internalType": "string",
          "name": "accountName",
          "type": "string"
        },
        {
          "internalType": "uint256",
          "name": "amount",
          "type": "uint256"
        }
      ],
      "name": "Withdraw",
      "outputs": [],
      "stateMutability": "nonpayable",
      "type": "function"
    },
    {
      "inputs": [
        {
          "internalType": "string",
          "name": "_accountName",
          "type": "string"
        },
        {
          "internalType": "string[]",
          "name": "_targetAccsName",
          "type": "string[]"
        },
        {
          "internalType": "uint256",
          "name": "amount",
          "type": "uint256"
        }
      ],
      "name": "BulkTransfer",
      "outputs": [],
      "stateMutability": "nonpayable",
      "type": "function"
    },
    {
      "inputs": [
        {
          "internalType": "string",
          "name": "_accountName",
          "type": "string"
        }
      ],
      "name": "GetAccountsInfo",
      "outputs": [
        {
          "components": [
            {
              "internalType": "address",
              "name": "addr",
              "type": "address"
            },
            {
              "internalType": "string",
              "name": "name",
              "type": "string"
            },
            {
              "internalType": "uint256",
              "name": "balance",
              "type": "uint256"
            },
            {
              "internalType": "bool",
              "name": "isExisted",
              "type": "bool"
            },
            {
              "components": [
                {
                  "internalType": "string",
                  "name": "sender",
                  "type": "string"
                },
                {
                  "internalType": "string",
                  "name": "receiver",
                  "type": "string"
                },
                {
                  "internalType": "uint256",
                  "name": "txvalue",
                  "type": "uint256"
                },
                {
                  "internalType": "uint256",
                  "name": "amount",
                  "type": "uint256"
                },
                {
                  "internalType": "bool",
                  "name": "feeCollected",
                  "type": "bool"
                },
                {
                  "internalType": "bool",
                  "name": "toBank",
                  "type": "bool"
                },
                {
                  "internalType": "uint256",
                  "name": "timestamp",
                  "type": "uint256"
                }
              ],
              "internalType": "struct Bank.TransactionStruct[]",
              "name": "transactionHistory",
              "type": "tuple[]"
            }
          ],
          "internalType": "struct Bank.AccountStruct",
          "name": "",
          "type": "tuple"
        }
      ],
      "stateMutability": "view",
      "type": "function",
      "constant": true
    },
    {
      "inputs": [],
      "name": "GetAccountsList",
      "outputs": [
        {
          "internalType": "string[]",
          "name": "",
          "type": "string[]"
        }
      ],
      "stateMutability": "view",
      "type": "function",
      "constant": true
    }
  ],
  "bytecode": "0x608060405234801561001057600080fd5b5033600160006101000a81548173ffffffffffffffffffffffffffffffffffffffff021916908373ffffffffffffffffffffffffffffffffffffffff16021790555061262f806100616000396000f3fe6080604052600436106100555760003560e01c806380dfa4051461005a5780638a74696d146100765780638f6befe2146100a1578063d5aced6c146100de578063ef6a4fe014610107578063fd950f7514610130575b600080fd5b610074600480360381019061006f9190611668565b610159565b005b34801561008257600080fd5b5061008b6103e0565b60405161009891906117fb565b60405180910390f35b3480156100ad57600080fd5b506100c860048036038101906100c39190611668565b6104fc565b6040516100d59190611a74565b60405180910390f35b3480156100ea57600080fd5b5061010560048036038101906101009190611ba8565b6108cd565b005b34801561011357600080fd5b5061012e60048036038101906101299190611668565b610aed565b005b34801561013c57600080fd5b5061015760048036038101906101529190611c33565b610c76565b005b6002816040516101699190611ccb565b908152602001604051809103902060030160009054906101000a900460ff166101c7576040517f08c379a00000000000000000000000000000000000000000000000000000000081526004016101be90611d3f565b60405180910390fd5b3373ffffffffffffffffffffffffffffffffffffffff166002826040516101ee9190611ccb565b908152602001604051809103902060000160009054906101000a900473ffffffffffffffffffffffffffffffffffffffff1673ffffffffffffffffffffffffffffffffffffffff1614610276576040517f08c379a000000000000000000000000000000000000000000000000000000000815260040161026d90611dd1565b60405180910390fd5b60003a346102849190611e20565b9050806002836040516102979190611ccb565b908152602001604051809103902060020160008282546102b79190611e54565b925050819055506002826040516102ce9190611ccb565b90815260200160405180910390206004016040518060e00160405280604051806020016040528060008152508152602001848152602001348152602001838152602001600015158152602001600115158152602001428152509080600181540180825580915050600190039060005260206000209060060201600090919091909150600082015181600001908161036591906120b6565b50602082015181600101908161037b91906120b6565b50604082015181600201556060820151816003015560808201518160040160006101000a81548160ff02191690831515021790555060a08201518160040160016101000a81548160ff02191690831515021790555060c0820151816005015550505050565b60606000600360003373ffffffffffffffffffffffffffffffffffffffff1673ffffffffffffffffffffffffffffffffffffffff168152602001908152602001600020805480602002602001604051908101604052809291908181526020016000905b828210156104ef57838290600052602060002001805461046290611ed9565b80601f016020809104026020016040519081016040528092919081815260200182805461048e90611ed9565b80156104db5780601f106104b0576101008083540402835291602001916104db565b820191906000526020600020905b8154815290600101906020018083116104be57829003601f168201915b505050505081526020019060010190610443565b5050505090508091505090565b6105046114c7565b3373ffffffffffffffffffffffffffffffffffffffff1660028360405161052b9190611ccb565b908152602001604051809103902060000160009054906101000a900473ffffffffffffffffffffffffffffffffffffffff1673ffffffffffffffffffffffffffffffffffffffff16146105b3576040517f08c379a00000000000000000000000000000000000000000000000000000000081526004016105aa906121fa565b60405180910390fd5b60006002836040516105c59190611ccb565b90815260200160405180910390206040518060a00160405290816000820160009054906101000a900473ffffffffffffffffffffffffffffffffffffffff1673ffffffffffffffffffffffffffffffffffffffff1673ffffffffffffffffffffffffffffffffffffffff16815260200160018201805461064490611ed9565b80601f016020809104026020016040519081016040528092919081815260200182805461067090611ed9565b80156106bd5780601f10610692576101008083540402835291602001916106bd565b820191906000526020600020905b8154815290600101906020018083116106a057829003601f168201915b50505050508152602001600282015481526020016003820160009054906101000a900460ff1615151515815260200160048201805480602002602001604051908101604052809291908181526020016000905b828210156108ba57838290600052602060002090600602016040518060e001604052908160008201805461074390611ed9565b80601f016020809104026020016040519081016040528092919081815260200182805461076f90611ed9565b80156107bc5780601f10610791576101008083540402835291602001916107bc565b820191906000526020600020905b81548152906001019060200180831161079f57829003601f168201915b505050505081526020016001820180546107d590611ed9565b80601f016020809104026020016040519081016040528092919081815260200182805461080190611ed9565b801561084e5780601f106108235761010080835404028352916020019161084e565b820191906000526020600020905b81548152906001019060200180831161083157829003601f168201915b5050505050815260200160028201548152602001600382015481526020016004820160009054906101000a900460ff161515151581526020016004820160019054906101000a900460ff1615151515815260200160058201548152505081526020019060010190610710565b5050505081525050905080915050919050565b6002836040516108dd9190611ccb565b908152602001604051809103902060030160009054906101000a900460ff1661093b576040517f08c379a000000000000000000000000000000000000000000000000000000000815260040161093290611d3f565b60405180910390fd5b3373ffffffffffffffffffffffffffffffffffffffff166002846040516109629190611ccb565b908152602001604051809103902060000160009054906101000a900473ffffffffffffffffffffffffffffffffffffffff1673ffffffffffffffffffffffffffffffffffffffff16146109ea576040517f08c379a00000000000000000000000000000000000000000000000000000000081526004016109e190611dd1565b60405180910390fd5b60008111610a2d576040517f08c379a0000000000000000000000000000000000000000000000000000000008152600401610a2490612266565b60405180910390fd5b6000825182610a3c9190612286565b905080600285604051610a4f9190611ccb565b9081526020016040518091039020600201541015610aa2576040517f08c379a0000000000000000000000000000000000000000000000000000000008152600401610a9990612352565b60405180910390fd5b60005b8351811015610ae657610ad385858381518110610ac557610ac4612372565b5b60200260200101518561101e565b8080610ade906123a1565b915050610aa5565b5050505050565b60011515600282604051610b019190611ccb565b908152602001604051809103902060030160009054906101000a900460ff16151503610b62576040517f08c379a0000000000000000000000000000000000000000000000000000000008152600401610b5990612435565b60405180910390fd5b600360003373ffffffffffffffffffffffffffffffffffffffff1673ffffffffffffffffffffffffffffffffffffffff16815260200190815260200160002081908060018154018082558091505060019003906000526020600020016000909190919091509081610bd391906120b6565b506000600282604051610be69190611ccb565b9081526020016040518091039020905081816001019081610c0791906120b6565b506000816002018190555060018160030160006101000a81548160ff021916908315150217905550338160000160006101000a81548173ffffffffffffffffffffffffffffffffffffffff021916908373ffffffffffffffffffffffffffffffffffffffff1602179055505050565b600282604051610c869190611ccb565b908152602001604051809103902060030160009054906101000a900460ff16610ce4576040517f08c379a0000000000000000000000000000000000000000000000000000000008152600401610cdb90611d3f565b60405180910390fd5b3373ffffffffffffffffffffffffffffffffffffffff16600283604051610d0b9190611ccb565b908152602001604051809103902060000160009054906101000a900473ffffffffffffffffffffffffffffffffffffffff1673ffffffffffffffffffffffffffffffffffffffff1614610d93576040517f08c379a0000000000000000000000000000000000000000000000000000000008152600401610d8a90611dd1565b60405180910390fd5b60008111610dd6576040517f08c379a0000000000000000000000000000000000000000000000000000000008152600401610dcd90612266565b60405180910390fd5b80600283604051610de79190611ccb565b9081526020016040518091039020600201541015610e3a576040517f08c379a0000000000000000000000000000000000000000000000000000000008152600401610e3190612352565b60405180910390fd5b80471015610e7d576040517f08c379a0000000000000000000000000000000000000000000000000000000008152600401610e74906124a1565b60405180910390fd5b80600283604051610e8e9190611ccb565b90815260200160405180910390206002016000828254610eae9190611e20565b925050819055503373ffffffffffffffffffffffffffffffffffffffff166108fc829081150290604051600060405180830381858888f19350505050158015610efb573d6000803e3d6000fd5b50600282604051610f0c9190611ccb565b90815260200160405180910390206004016040518060e001604052808481526020016040518060200160405280600081525081526020018381526020018381526020016000151581526020016001151581526020014281525090806001815401808255809150506001900390600052602060002090600602016000909190919091506000820151816000019081610fa391906120b6565b506020820151816001019081610fb991906120b6565b50604082015181600201556060820151816003015560808201518160040160006101000a81548160ff02191690831515021790555060a08201518160040160016101000a81548160ff02191690831515021790555060c0820151816005015550505050565b60006002846040516110309190611ccb565b9081526020016040518091039020905060006002846040516110529190611ccb565b908152602001604051809103902090508160030160009054906101000a900460ff166110b3576040517f08c379a00000000000000000000000000000000000000000000000000000000081526004016110aa9061250d565b60405180910390fd5b8060030160009054906101000a900460ff16611104576040517f08c379a00000000000000000000000000000000000000000000000000000000081526004016110fb90612579565b60405180910390fd5b60008311611147576040517f08c379a000000000000000000000000000000000000000000000000000000000815260040161113e90612266565b60405180910390fd5b828260020154101561118e576040517f08c379a000000000000000000000000000000000000000000000000000000000815260040161118590612352565b60405180910390fd5b611198858561146e565b156111a257600080fd5b600083905060008260000160009054906101000a900473ffffffffffffffffffffffffffffffffffffffff1673ffffffffffffffffffffffffffffffffffffffff168460000160009054906101000a900473ffffffffffffffffffffffffffffffffffffffff1673ffffffffffffffffffffffffffffffffffffffff16146112445760646063866112339190612286565b61123d91906125c8565b9150600190505b848460020160008282546112589190611e20565b92505081905550818360020160008282546112739190611e54565b9250508190555060006040518060e0016040528089815260200188815260200187815260200184815260200183151581526020016000151581526020014281525090506002886040516112c69190611ccb565b9081526020016040518091039020600401819080600181540180825580915050600190039060005260206000209060060201600090919091909150600082015181600001908161131691906120b6565b50602082015181600101908161132c91906120b6565b50604082015181600201556060820151816003015560808201518160040160006101000a81548160ff02191690831515021790555060a08201518160040160016101000a81548160ff02191690831515021790555060c08201518160050155505060028760405161139d9190611ccb565b908152602001604051809103902060040181908060018154018082558091505060019003906000526020600020906006020160009091909190915060008201518160000190816113ed91906120b6565b50602082015181600101908161140391906120b6565b50604082015181600201556060820151816003015560808201518160040160006101000a81548160ff02191690831515021790555060a08201518160040160016101000a81548160ff02191690831515021790555060c0820151816005015550505050505050505050565b6000816040516020016114819190611ccb565b60405160208183030381529060405280519060200120836040516020016114a89190611ccb565b6040516020818303038152906040528051906020012014905092915050565b6040518060a00160405280600073ffffffffffffffffffffffffffffffffffffffff1681526020016060815260200160008152602001600015158152602001606081525090565b6000604051905090565b600080fd5b600080fd5b600080fd5b600080fd5b6000601f19601f8301169050919050565b7f4e487b7100000000000000000000000000000000000000000000000000000000600052604160045260246000fd5b6115758261152c565b810181811067ffffffffffffffff821117156115945761159361153d565b5b80604052505050565b60006115a761150e565b90506115b3828261156c565b919050565b600067ffffffffffffffff8211156115d3576115d261153d565b5b6115dc8261152c565b9050602081019050919050565b82818337600083830152505050565b600061160b611606846115b8565b61159d565b90508281526020810184848401111561162757611626611527565b5b6116328482856115e9565b509392505050565b600082601f83011261164f5761164e611522565b5b813561165f8482602086016115f8565b91505092915050565b60006020828403121561167e5761167d611518565b5b600082013567ffffffffffffffff81111561169c5761169b61151d565b5b6116a88482850161163a565b91505092915050565b600081519050919050565b600082825260208201905092915050565b6000819050602082019050919050565b600081519050919050565b600082825260208201905092915050565b60005b838110156117175780820151818401526020810190506116fc565b83811115611726576000848401525b50505050565b6000611737826116dd565b61174181856116e8565b93506117518185602086016116f9565b61175a8161152c565b840191505092915050565b6000611771838361172c565b905092915050565b6000602082019050919050565b6000611791826116b1565b61179b81856116bc565b9350836020820285016117ad856116cd565b8060005b858110156117e957848403895281516117ca8582611765565b94506117d583611779565b925060208a019950506001810190506117b1565b50829750879550505050505092915050565b600060208201905081810360008301526118158184611786565b905092915050565b600073ffffffffffffffffffffffffffffffffffffffff82169050919050565b60006118488261181d565b9050919050565b6118588161183d565b82525050565b6000819050919050565b6118718161185e565b82525050565b60008115159050919050565b61188c81611877565b82525050565b600081519050919050565b600082825260208201905092915050565b6000819050602082019050919050565b600060e08301600083015184820360008601526118db828261172c565b915050602083015184820360208601526118f5828261172c565b915050604083015161190a6040860182611868565b50606083015161191d6060860182611868565b5060808301516119306080860182611883565b5060a083015161194360a0860182611883565b5060c083015161195660c0860182611868565b508091505092915050565b600061196d83836118be565b905092915050565b6000602082019050919050565b600061198d82611892565b611997818561189d565b9350836020820285016119a9856118ae565b8060005b858110156119e557848403895281516119c68582611961565b94506119d183611975565b925060208a019950506001810190506119ad565b50829750879550505050505092915050565b600060a083016000830151611a0f600086018261184f565b5060208301518482036020860152611a27828261172c565b9150506040830151611a3c6040860182611868565b506060830151611a4f6060860182611883565b5060808301518482036080860152611a678282611982565b9150508091505092915050565b60006020820190508181036000830152611a8e81846119f7565b905092915050565b600067ffffffffffffffff821115611ab157611ab061153d565b5b602082029050602081019050919050565b600080fd5b6000611ada611ad584611a96565b61159d565b90508083825260208201905060208402830185811115611afd57611afc611ac2565b5b835b81811015611b4457803567ffffffffffffffff811115611b2257611b21611522565b5b808601611b2f898261163a565b85526020850194505050602081019050611aff565b5050509392505050565b600082601f830112611b6357611b62611522565b5b8135611b73848260208601611ac7565b91505092915050565b611b858161185e565b8114611b9057600080fd5b50565b600081359050611ba281611b7c565b92915050565b600080600060608486031215611bc157611bc0611518565b5b600084013567ffffffffffffffff811115611bdf57611bde61151d565b5b611beb8682870161163a565b935050602084013567ffffffffffffffff811115611c0c57611c0b61151d565b5b611c1886828701611b4e565b9250506040611c2986828701611b93565b9150509250925092565b60008060408385031215611c4a57611c49611518565b5b600083013567ffffffffffffffff811115611c6857611c6761151d565b5b611c748582860161163a565b9250506020611c8585828601611b93565b9150509250929050565b600081905092915050565b6000611ca5826116dd565b611caf8185611c8f565b9350611cbf8185602086016116f9565b80840191505092915050565b6000611cd78284611c9a565b915081905092915050565b600082825260208201905092915050565b7f4163636f756e7420646f6573206e6f7420657869737400000000000000000000600082015250565b6000611d29601683611ce2565b9150611d3482611cf3565b602082019050919050565b60006020820190508181036000830152611d5881611d1c565b9050919050565b7f4163636f756e7420646f6573206e6f742062656c6f6e6720746f20746869732060008201527f6164647265737300000000000000000000000000000000000000000000000000602082015250565b6000611dbb602783611ce2565b9150611dc682611d5f565b604082019050919050565b60006020820190508181036000830152611dea81611dae565b9050919050565b7f4e487b7100000000000000000000000000000000000000000000000000000000600052601160045260246000fd5b6000611e2b8261185e565b9150611e368361185e565b925082821015611e4957611e48611df1565b5b828203905092915050565b6000611e5f8261185e565b9150611e6a8361185e565b9250827fffffffffffffffffffffffffffffffffffffffffffffffffffffffffffffffff03821115611e9f57611e9e611df1565b5b828201905092915050565b7f4e487b7100000000000000000000000000000000000000000000000000000000600052602260045260246000fd5b60006002820490506001821680611ef157607f821691505b602082108103611f0457611f03611eaa565b5b50919050565b60008190508160005260206000209050919050565b60006020601f8301049050919050565b600082821b905092915050565b600060088302611f6c7fffffffffffffffffffffffffffffffffffffffffffffffffffffffffffffffff82611f2f565b611f768683611f2f565b95508019841693508086168417925050509392505050565b6000819050919050565b6000611fb3611fae611fa98461185e565b611f8e565b61185e565b9050919050565b6000819050919050565b611fcd83611f98565b611fe1611fd982611fba565b848454611f3c565b825550505050565b600090565b611ff6611fe9565b612001818484611fc4565b505050565b5b818110156120255761201a600082611fee565b600181019050612007565b5050565b601f82111561206a5761203b81611f0a565b61204484611f1f565b81016020851015612053578190505b61206761205f85611f1f565b830182612006565b50505b505050565b600082821c905092915050565b600061208d6000198460080261206f565b1980831691505092915050565b60006120a6838361207c565b9150826002028217905092915050565b6120bf826116dd565b67ffffffffffffffff8111156120d8576120d761153d565b5b6120e28254611ed9565b6120ed828285612029565b600060209050601f831160018114612120576000841561210e578287015190505b612118858261209a565b865550612180565b601f19841661212e86611f0a565b60005b8281101561215657848901518255600182019150602085019450602081019050612131565b86831015612173578489015161216f601f89168261207c565b8355505b6001600288020188555050505b505050505050565b7f4163636f756e7420646f65732062656c6f6e6720746f2074686973206164647260008201527f6573730000000000000000000000000000000000000000000000000000000000602082015250565b60006121e4602383611ce2565b91506121ef82612188565b604082019050919050565b60006020820190508181036000830152612213816121d7565b9050919050565b7f416d6f756e7420697320696e76616c6964000000000000000000000000000000600082015250565b6000612250601183611ce2565b915061225b8261221a565b602082019050919050565b6000602082019050818103600083015261227f81612243565b9050919050565b60006122918261185e565b915061229c8361185e565b9250817fffffffffffffffffffffffffffffffffffffffffffffffffffffffffffffffff04831182151516156122d5576122d4611df1565b5b828202905092915050565b7f496e73756666696369656e742062616c616e6365206f6e20746869732061636360008201527f6f756e7400000000000000000000000000000000000000000000000000000000602082015250565b600061233c602483611ce2565b9150612347826122e0565b604082019050919050565b6000602082019050818103600083015261236b8161232f565b9050919050565b7f4e487b7100000000000000000000000000000000000000000000000000000000600052603260045260246000fd5b60006123ac8261185e565b91507fffffffffffffffffffffffffffffffffffffffffffffffffffffffffffffffff82036123de576123dd611df1565b5b600182019050919050565b7f4163636f756e7420616c72656164792065786973747300000000000000000000600082015250565b600061241f601683611ce2565b915061242a826123e9565b602082019050919050565b6000602082019050818103600083015261244e81612412565b9050919050565b7f696e7465726e616c206166666169727300000000000000000000000000000000600082015250565b600061248b601083611ce2565b915061249682612455565b602082019050919050565b600060208201905081810360008301526124ba8161247e565b9050919050565b7f53656e646572204163636f756e7420646f6573206e6f74206578697374000000600082015250565b60006124f7601d83611ce2565b9150612502826124c1565b602082019050919050565b60006020820190508181036000830152612526816124ea565b9050919050565b7f5265636569766572204163636f756e7420646f6573206e6f7420657869737400600082015250565b6000612563601f83611ce2565b915061256e8261252d565b602082019050919050565b6000602082019050818103600083015261259281612556565b9050919050565b7f4e487b7100000000000000000000000000000000000000000000000000000000600052601260045260246000fd5b60006125d38261185e565b91506125de8361185e565b9250826125ee576125ed612599565b5b82820490509291505056fea26469706673582212202c0b5b1853ae9a71152e381a7bfd852a01b47bcab393082f8c2287fb6697480464736f6c634300080f0033",
  "immutableReferences": {},
  "source": "// SPDX-License-Identifier: MIT\r\npragma solidity >=0.4.22 <0.9.0;\r\n\r\ncontract Bank {\r\n    address[] private addresses;\r\n    address payable private bank;\r\n\r\n    struct TransactionStruct {\r\n        string sender;\r\n        string receiver;\r\n        uint256 txvalue;\r\n        uint256 amount;\r\n        bool feeCollected;\r\n        bool toBank;\r\n        uint256 timestamp;\r\n    }\r\n    // name => account\r\n    // address => [name, name, name]\r\n\r\n    // address => [account, account, account]\r\n    // name => address\r\n\r\n    struct AccountStruct {\r\n        address addr;\r\n        string name;\r\n        uint256 balance;\r\n        bool isExisted;\r\n        // mapping(uint256 => TransactionStruct) transactionHistory;\r\n        // uint256 transactionLength;\r\n        // string[] transactionList;\r\n        TransactionStruct[] transactionHistory;\r\n    }\r\n\r\n    constructor() {\r\n        bank = payable(msg.sender);\r\n    }\r\n\r\n    // mapping (address => AccountStruct) private AccountsRecord;\r\n    mapping(string => AccountStruct) private AccountsRecord;\r\n    mapping(address => string[]) private AccountsAddrRecord;\r\n\r\n    function toOwner() private {\r\n        bank.transfer(address(this).balance);\r\n    }\r\n\r\n    function CreateAccount(string memory accountName) public {\r\n        require(\r\n            AccountsRecord[accountName].isExisted != true,\r\n            \"Account already exists\"\r\n        );\r\n        AccountsAddrRecord[msg.sender].push(accountName);\r\n        // TransactionStruct[] memory transactionHistory;\r\n        // TransactionStruct[] storage transactionHistory;\r\n        AccountStruct storage _acc = AccountsRecord[accountName];\r\n        _acc.name = accountName;\r\n        _acc.balance = 0;\r\n        _acc.isExisted = true;\r\n        _acc.addr = msg.sender;\r\n        // AccountsRecord[accountName] = _acc;\r\n        // AccountsRecord[accountName] = AccountStruct({\r\n        //     name: accountName,\r\n        //     balance: 0,\r\n        //     isExisted: true,\r\n        //     addr: msg.sender\r\n        //     // transactionHistory: []\r\n        //     // transactionLength:\r\n        // });\r\n    }\r\n\r\n    function Deposit(string memory accountName) public payable {\r\n        require(\r\n            AccountsRecord[accountName].isExisted,\r\n            \"Account does not exist\"\r\n        );\r\n        require(\r\n            AccountsRecord[accountName].addr == msg.sender,\r\n            \"Account does not belong to this address\"\r\n        );\r\n        uint256 amountToAdd = msg.value - tx.gasprice;\r\n        AccountsRecord[accountName].balance += amountToAdd;\r\n        AccountsRecord[accountName].transactionHistory.push(\r\n            TransactionStruct({\r\n                sender: \"\",\r\n                receiver: accountName,\r\n                txvalue: msg.value,\r\n                amount: amountToAdd,\r\n                feeCollected: false,\r\n                toBank: true,\r\n                timestamp: block.timestamp\r\n            })\r\n        );\r\n        // toOwner();\r\n    }\r\n\r\n    function Withdraw(string memory accountName, uint256 amount) public {\r\n        // string memory accountName = AccountsAddrRecord[msg.sender];\r\n        require(\r\n            AccountsRecord[accountName].isExisted,\r\n            \"Account does not exist\"\r\n        );\r\n        require(\r\n            AccountsRecord[accountName].addr == msg.sender,\r\n            \"Account does not belong to this address\"\r\n        );\r\n        require(amount > 0, \"Amount is invalid\");\r\n        require(\r\n            AccountsRecord[accountName].balance >= amount,\r\n            \"Insufficient balance on this account\"\r\n        );\r\n\r\n        require(address(this).balance >= amount, \"internal affairs\");\r\n        AccountsRecord[accountName].balance -= amount;\r\n        payable(msg.sender).transfer(amount);\r\n        AccountsRecord[accountName].transactionHistory.push(\r\n            TransactionStruct({\r\n                sender: accountName,\r\n                receiver: \"\",\r\n                txvalue: amount,\r\n                amount: amount,\r\n                feeCollected: false,\r\n                toBank: true,\r\n                timestamp: block.timestamp\r\n            })\r\n        );\r\n    }\r\n\r\n    function compareStrings(string memory a, string memory b)\r\n        private\r\n        pure\r\n        returns (bool)\r\n    {\r\n        return (keccak256(abi.encodePacked((a))) ==\r\n            keccak256(abi.encodePacked((b))));\r\n    }\r\n\r\n    function Transfer(\r\n        string memory _accountName,\r\n        string memory _targetAccName,\r\n        uint256 amount\r\n    ) private {\r\n        AccountStruct storage _senderAcc = AccountsRecord[_accountName];\r\n        AccountStruct storage _targetAcc = AccountsRecord[_targetAccName];\r\n        require(_senderAcc.isExisted, \"Sender Account does not exist\");\r\n        require(_targetAcc.isExisted, \"Receiver Account does not exist\");\r\n        // require(\r\n        //     _senderAcc.addr == msg.sender,\r\n        //     \"Account does not belong to this address\"\r\n        // );\r\n        require(amount > 0, \"Amount is invalid\");\r\n        require(\r\n            _senderAcc.balance >= amount,\r\n            \"Insufficient balance on this account\"\r\n        );\r\n        require(!compareStrings(_accountName, _targetAccName));\r\n        uint256 amountToAdd = amount;\r\n        bool feeCollected = false;\r\n        if (_senderAcc.addr != _targetAcc.addr) {\r\n            amountToAdd = (amount * 99) / 100;\r\n            feeCollected = true;\r\n        }\r\n        _senderAcc.balance -= amount;\r\n        _targetAcc.balance += amountToAdd;\r\n        TransactionStruct memory _transaction = TransactionStruct({\r\n            sender: _accountName,\r\n            receiver: _targetAccName,\r\n            txvalue: amount,\r\n            amount: amountToAdd,\r\n            feeCollected: feeCollected,\r\n            toBank: false,\r\n            timestamp: block.timestamp\r\n        });\r\n        AccountsRecord[_accountName].transactionHistory.push(_transaction);\r\n        AccountsRecord[_targetAccName].transactionHistory.push(_transaction);\r\n    }\r\n\r\n    function BulkTransfer(\r\n        string memory _accountName,\r\n        string[] memory _targetAccsName,\r\n        uint256 amount\r\n    ) public {\r\n        require(\r\n            AccountsRecord[_accountName].isExisted,\r\n            \"Account does not exist\"\r\n        );\r\n        require(\r\n            AccountsRecord[_accountName].addr == msg.sender,\r\n            \"Account does not belong to this address\"\r\n        );\r\n        require(amount > 0, \"Amount is invalid\");\r\n        uint256 _totalAmount = amount * _targetAccsName.length;\r\n        require(\r\n            AccountsRecord[_accountName].balance >= _totalAmount,\r\n            \"Insufficient balance on this account\"\r\n        );\r\n        // AccountsRecord[_accountName].balance -= _totalAmount;\r\n        uint256 _i;\r\n        for (_i = 0; _i < _targetAccsName.length; _i++) {\r\n            Transfer(_accountName, _targetAccsName[_i], amount);\r\n        }\r\n        // AccountsRecord[targetAccName].balance += amount;\r\n    }\r\n\r\n    function GetAccountsInfo(string memory _accountName)\r\n        public\r\n        view\r\n        returns (AccountStruct memory)\r\n    {\r\n        require(\r\n            AccountsRecord[_accountName].addr == msg.sender,\r\n            \"Account does belong to this address\"\r\n        );\r\n        AccountStruct memory _payload = AccountsRecord[_accountName];\r\n        return _payload;\r\n    }\r\n\r\n    function GetAccountsList() public view returns (string[] memory) {\r\n        string[] memory _AccNameList = AccountsAddrRecord[msg.sender];\r\n        return _AccNameList;\r\n    }\r\n}\r\n",
  "sourcePath": "C:\\Users\\ironp\\hackathon\\scb10x-bank\\contracts\\Account.sol",
  "compiler": {
    "name": "solc",
    "version": "0.8.15+commit.e14f2714.Emscripten.clang"
  },
  "schemaVersion": "3.4.8",
  "updatedAt": "2022-07-10T12:18:29.654Z",
  "networkType": "ethereum",
  "devdoc": {
    "kind": "dev",
    "methods": {},
    "version": 1
  },
  "userdoc": {
    "kind": "user",
    "methods": {},
    "version": 1
  }
}