{
  "contractName": "Bank",
  "abi": [
    {
      "inputs": [],
      "stateMutability": "nonpayable",
      "type": "constructor"
    },
    {
      "inputs": [],
      "name": "test",
      "outputs": [
        {
          "internalType": "string",
          "name": "",
          "type": "string"
        }
      ],
      "stateMutability": "pure",
      "type": "function",
      "constant": true
    },
    {
      "inputs": [],
      "name": "getMyAccList",
      "outputs": [
        {
          "internalType": "string[]",
          "name": "",
          "type": "string[]"
        }
      ],
      "stateMutability": "view",
      "type": "function",
      "constant": true
    },
    {
      "inputs": [
        {
          "internalType": "string",
          "name": "accountName",
          "type": "string"
        }
      ],
      "name": "getAccBalance",
      "outputs": [
        {
          "internalType": "uint256",
          "name": "",
          "type": "uint256"
        }
      ],
      "stateMutability": "view",
      "type": "function",
      "constant": true
    },
    {
      "inputs": [
        {
          "internalType": "string",
          "name": "accountName",
          "type": "string"
        }
      ],
      "name": "CreateAccount",
      "outputs": [],
      "stateMutability": "nonpayable",
      "type": "function"
    },
    {
      "inputs": [
        {
          "internalType": "string",
          "name": "accountName",
          "type": "string"
        }
      ],
      "name": "Deposit",
      "outputs": [],
      "stateMutability": "payable",
      "type": "function",
      "payable": true
    },
    {
      "inputs": [
        {
          "internalType": "string",
          "name": "accountName",
          "type": "string"
        },
        {
          "internalType": "uint256",
          "name": "amount",
          "type": "uint256"
        }
      ],
      "name": "Withdraw",
      "outputs": [],
      "stateMutability": "nonpayable",
      "type": "function"
    },
    {
      "inputs": [
        {
          "internalType": "string",
          "name": "_accountName",
          "type": "string"
        },
        {
          "internalType": "string",
          "name": "_targetAccName",
          "type": "string"
        },
        {
          "internalType": "uint256",
          "name": "amount",
          "type": "uint256"
        }
      ],
      "name": "Transfer",
      "outputs": [],
      "stateMutability": "nonpayable",
      "type": "function"
    },
    {
      "inputs": [
        {
          "internalType": "string",
          "name": "_accountName",
          "type": "string"
        },
        {
          "internalType": "string[]",
          "name": "_targetAccsName",
          "type": "string[]"
        },
        {
          "internalType": "uint256",
          "name": "amount",
          "type": "uint256"
        }
      ],
      "name": "BulkTransfer",
      "outputs": [],
      "stateMutability": "nonpayable",
      "type": "function"
    },
    {
      "inputs": [],
      "name": "GetAccountsList",
      "outputs": [
        {
          "components": [
            {
              "internalType": "address",
              "name": "addr",
              "type": "address"
            },
            {
              "internalType": "string",
              "name": "name",
              "type": "string"
            },
            {
              "internalType": "uint256",
              "name": "balance",
              "type": "uint256"
            },
            {
              "internalType": "bool",
              "name": "isExisted",
              "type": "bool"
            }
          ],
          "internalType": "struct Bank.AccountStruct[]",
          "name": "",
          "type": "tuple[]"
        }
      ],
      "stateMutability": "view",
      "type": "function",
      "constant": true
    }
  ],
  "bytecode": "0x608060405234801561001057600080fd5b5033600160006101000a81548173ffffffffffffffffffffffffffffffffffffffff021916908373ffffffffffffffffffffffffffffffffffffffff160217905550611ad2806100616000396000f3fe6080604052600436106100865760003560e01c80638a74696d116100595780638a74696d14610138578063d5aced6c14610163578063ef6a4fe01461018c578063f8a8fd6d146101b5578063fd950f75146101e057610086565b80630ca7ccdf1461008b5780635358be4d146100b657806366dbbf96146100df57806380dfa4051461011c575b600080fd5b34801561009757600080fd5b506100a0610209565b6040516100ad9190610eb2565b60405180910390f35b3480156100c257600080fd5b506100dd60048036038101906100d89190611053565b61031f565b005b3480156100eb57600080fd5b50610106600480360381019061010191906110de565b6104cc565b6040516101139190611136565b60405180910390f35b610136600480360381019061013191906110de565b6104f7565b005b34801561014457600080fd5b5061014d61057b565b60405161015a91906112e1565b60405180910390f35b34801561016f57600080fd5b5061018a600480360381019061018591906113e9565b610828565b005b34801561019857600080fd5b506101b360048036038101906101ae91906110de565b6109ff565b005b3480156101c157600080fd5b506101ca610b96565b6040516101d791906114be565b60405180910390f35b3480156101ec57600080fd5b50610207600480360381019061020291906114e0565b610bd3565b005b6060600360003373ffffffffffffffffffffffffffffffffffffffff1673ffffffffffffffffffffffffffffffffffffffff168152602001908152602001600020805480602002602001604051908101604052809291908181526020016000905b828210156103165783829060005260206000200180546102899061156b565b80601f01602080910402602001604051908101604052809291908181526020018280546102b59061156b565b80156103025780601f106102d757610100808354040283529160200191610302565b820191906000526020600020905b8154815290600101906020018083116102e557829003601f168201915b50505050508152602001906001019061026a565b50505050905090565b600060028460405161033191906115d8565b90815260200160405180910390209050600060028460405161035391906115d8565b908152602001604051809103902090508160030160009054906101000a900460ff1661037e57600080fd5b3373ffffffffffffffffffffffffffffffffffffffff168260000160009054906101000a900473ffffffffffffffffffffffffffffffffffffffff1673ffffffffffffffffffffffffffffffffffffffff16146103da57600080fd5b82826002015410156103eb57600080fd5b600083905060008260000160009054906101000a900473ffffffffffffffffffffffffffffffffffffffff1673ffffffffffffffffffffffffffffffffffffffff168460000160009054906101000a900473ffffffffffffffffffffffffffffffffffffffff1673ffffffffffffffffffffffffffffffffffffffff161461048d57606460638661047c919061161e565b61048691906116a7565b9150600190505b848460020160008282546104a191906116d8565b92505081905550818360020160008282546104bc919061170c565b9250508190555050505050505050565b60006002826040516104de91906115d8565b9081526020016040518091039020600201549050919050565b60028160405161050791906115d8565b908152602001604051809103902060030160009054906101000a900460ff1661052f57600080fd5b60003a3461053d91906116d8565b90508060028360405161055091906115d8565b90815260200160405180910390206002016000828254610570919061170c565b925050819055505050565b60606000600360003373ffffffffffffffffffffffffffffffffffffffff1673ffffffffffffffffffffffffffffffffffffffff168152602001908152602001600020805480602002602001604051908101604052809291908181526020016000905b8282101561068a5783829060005260206000200180546105fd9061156b565b80601f01602080910402602001604051908101604052809291908181526020018280546106299061156b565b80156106765780601f1061064b57610100808354040283529160200191610676565b820191906000526020600020905b81548152906001019060200180831161065957829003601f168201915b5050505050815260200190600101906105de565b505050509050606060005b825181101561081f5760028382815181106106b3576106b2611762565b5b60200260200101516040516106c891906115d8565b90815260200160405180910390206040518060800160405290816000820160009054906101000a900473ffffffffffffffffffffffffffffffffffffffff1673ffffffffffffffffffffffffffffffffffffffff1673ffffffffffffffffffffffffffffffffffffffff1681526020016001820180546107479061156b565b80601f01602080910402602001604051908101604052809291908181526020018280546107739061156b565b80156107c05780601f10610795576101008083540402835291602001916107c0565b820191906000526020600020905b8154815290600101906020018083116107a357829003601f168201915b50505050508152602001600282015481526020016003820160009054906101000a900460ff16151515158152505082828151811061080157610800611762565b5b6020026020010181905250808061081790611791565b915050610695565b81935050505090565b60028360405161083891906115d8565b908152602001604051809103902060030160009054906101000a900460ff1661086057600080fd5b3373ffffffffffffffffffffffffffffffffffffffff1660028460405161088791906115d8565b908152602001604051809103902060000160009054906101000a900473ffffffffffffffffffffffffffffffffffffffff1673ffffffffffffffffffffffffffffffffffffffff16146108d957600080fd5b60008251826108e8919061161e565b9050806002856040516108fb91906115d8565b908152602001604051809103902060020154101561091857600080fd5b8060028560405161092991906115d8565b9081526020016040518091039020600201600082825461094991906116d8565b9250508190555060005b83518110156109f8573073ffffffffffffffffffffffffffffffffffffffff16635358be4d8686848151811061098c5761098b611762565b5b6020026020010151866040518463ffffffff1660e01b81526004016109b3939291906117d9565b600060405180830381600087803b1580156109cd57600080fd5b505af11580156109e1573d6000803e3d6000fd5b5050505080806109f090611791565b915050610953565b5050505050565b60011515600282604051610a1391906115d8565b908152602001604051809103902060030160009054906101000a900460ff16151503610a3e57600080fd5b600360003373ffffffffffffffffffffffffffffffffffffffff1673ffffffffffffffffffffffffffffffffffffffff16815260200190815260200160002081908060018154018082558091505060019003906000526020600020016000909190919091509081610aaf91906119ca565b5060405180608001604052803373ffffffffffffffffffffffffffffffffffffffff1681526020018281526020016000815260200160011515815250600282604051610afb91906115d8565b908152602001604051809103902060008201518160000160006101000a81548173ffffffffffffffffffffffffffffffffffffffff021916908373ffffffffffffffffffffffffffffffffffffffff1602179055506020820151816001019081610b6591906119ca565b506040820151816002015560608201518160030160006101000a81548160ff02191690831515021790555090505050565b60606040518060400160405280600681526020017f7366646661730000000000000000000000000000000000000000000000000000815250905090565b600282604051610be391906115d8565b908152602001604051809103902060030160009054906101000a900460ff16610c0b57600080fd5b3373ffffffffffffffffffffffffffffffffffffffff16600283604051610c3291906115d8565b908152602001604051809103902060000160009054906101000a900473ffffffffffffffffffffffffffffffffffffffff1673ffffffffffffffffffffffffffffffffffffffff1614610c8457600080fd5b80600283604051610c9591906115d8565b9081526020016040518091039020600201541015610cb257600080fd5b80600283604051610cc391906115d8565b90815260200160405180910390206002016000828254610ce391906116d8565b92505081905550600160009054906101000a900473ffffffffffffffffffffffffffffffffffffffff1673ffffffffffffffffffffffffffffffffffffffff166108fc829081150290604051600060405180830381858888f19350505050158015610d52573d6000803e3d6000fd5b505050565b600081519050919050565b600082825260208201905092915050565b6000819050602082019050919050565b600081519050919050565b600082825260208201905092915050565b60005b83811015610dbd578082015181840152602081019050610da2565b83811115610dcc576000848401525b50505050565b6000601f19601f8301169050919050565b6000610dee82610d83565b610df88185610d8e565b9350610e08818560208601610d9f565b610e1181610dd2565b840191505092915050565b6000610e288383610de3565b905092915050565b6000602082019050919050565b6000610e4882610d57565b610e528185610d62565b935083602082028501610e6485610d73565b8060005b85811015610ea05784840389528151610e818582610e1c565b9450610e8c83610e30565b925060208a01995050600181019050610e68565b50829750879550505050505092915050565b60006020820190508181036000830152610ecc8184610e3d565b905092915050565b6000604051905090565b600080fd5b600080fd5b600080fd5b600080fd5b7f4e487b7100000000000000000000000000000000000000000000000000000000600052604160045260246000fd5b610f2a82610dd2565b810181811067ffffffffffffffff82111715610f4957610f48610ef2565b5b80604052505050565b6000610f5c610ed4565b9050610f688282610f21565b919050565b600067ffffffffffffffff821115610f8857610f87610ef2565b5b610f9182610dd2565b9050602081019050919050565b82818337600083830152505050565b6000610fc0610fbb84610f6d565b610f52565b905082815260208101848484011115610fdc57610fdb610eed565b5b610fe7848285610f9e565b509392505050565b600082601f83011261100457611003610ee8565b5b8135611014848260208601610fad565b91505092915050565b6000819050919050565b6110308161101d565b811461103b57600080fd5b50565b60008135905061104d81611027565b92915050565b60008060006060848603121561106c5761106b610ede565b5b600084013567ffffffffffffffff81111561108a57611089610ee3565b5b61109686828701610fef565b935050602084013567ffffffffffffffff8111156110b7576110b6610ee3565b5b6110c386828701610fef565b92505060406110d48682870161103e565b9150509250925092565b6000602082840312156110f4576110f3610ede565b5b600082013567ffffffffffffffff81111561111257611111610ee3565b5b61111e84828501610fef565b91505092915050565b6111308161101d565b82525050565b600060208201905061114b6000830184611127565b92915050565b600081519050919050565b600082825260208201905092915050565b6000819050602082019050919050565b600073ffffffffffffffffffffffffffffffffffffffff82169050919050565b60006111a88261117d565b9050919050565b6111b88161119d565b82525050565b6111c78161101d565b82525050565b60008115159050919050565b6111e2816111cd565b82525050565b600060808301600083015161120060008601826111af565b50602083015184820360208601526112188282610de3565b915050604083015161122d60408601826111be565b50606083015161124060608601826111d9565b508091505092915050565b600061125783836111e8565b905092915050565b6000602082019050919050565b600061127782611151565b611281818561115c565b9350836020820285016112938561116d565b8060005b858110156112cf57848403895281516112b0858261124b565b94506112bb8361125f565b925060208a01995050600181019050611297565b50829750879550505050505092915050565b600060208201905081810360008301526112fb818461126c565b905092915050565b600067ffffffffffffffff82111561131e5761131d610ef2565b5b602082029050602081019050919050565b600080fd5b600061134761134284611303565b610f52565b9050808382526020820190506020840283018581111561136a5761136961132f565b5b835b818110156113b157803567ffffffffffffffff81111561138f5761138e610ee8565b5b80860161139c8982610fef565b8552602085019450505060208101905061136c565b5050509392505050565b600082601f8301126113d0576113cf610ee8565b5b81356113e0848260208601611334565b91505092915050565b60008060006060848603121561140257611401610ede565b5b600084013567ffffffffffffffff8111156114205761141f610ee3565b5b61142c86828701610fef565b935050602084013567ffffffffffffffff81111561144d5761144c610ee3565b5b611459868287016113bb565b925050604061146a8682870161103e565b9150509250925092565b600082825260208201905092915050565b600061149082610d83565b61149a8185611474565b93506114aa818560208601610d9f565b6114b381610dd2565b840191505092915050565b600060208201905081810360008301526114d88184611485565b905092915050565b600080604083850312156114f7576114f6610ede565b5b600083013567ffffffffffffffff81111561151557611514610ee3565b5b61152185828601610fef565b92505060206115328582860161103e565b9150509250929050565b7f4e487b7100000000000000000000000000000000000000000000000000000000600052602260045260246000fd5b6000600282049050600182168061158357607f821691505b6020821081036115965761159561153c565b5b50919050565b600081905092915050565b60006115b282610d83565b6115bc818561159c565b93506115cc818560208601610d9f565b80840191505092915050565b60006115e482846115a7565b915081905092915050565b7f4e487b7100000000000000000000000000000000000000000000000000000000600052601160045260246000fd5b60006116298261101d565b91506116348361101d565b9250817fffffffffffffffffffffffffffffffffffffffffffffffffffffffffffffffff048311821515161561166d5761166c6115ef565b5b828202905092915050565b7f4e487b7100000000000000000000000000000000000000000000000000000000600052601260045260246000fd5b60006116b28261101d565b91506116bd8361101d565b9250826116cd576116cc611678565b5b828204905092915050565b60006116e38261101d565b91506116ee8361101d565b925082821015611701576117006115ef565b5b828203905092915050565b60006117178261101d565b91506117228361101d565b9250827fffffffffffffffffffffffffffffffffffffffffffffffffffffffffffffffff03821115611757576117566115ef565b5b828201905092915050565b7f4e487b7100000000000000000000000000000000000000000000000000000000600052603260045260246000fd5b600061179c8261101d565b91507fffffffffffffffffffffffffffffffffffffffffffffffffffffffffffffffff82036117ce576117cd6115ef565b5b600182019050919050565b600060608201905081810360008301526117f38186611485565b905081810360208301526118078185611485565b90506118166040830184611127565b949350505050565b60008190508160005260206000209050919050565b60006020601f8301049050919050565b600082821b905092915050565b6000600883026118807fffffffffffffffffffffffffffffffffffffffffffffffffffffffffffffffff82611843565b61188a8683611843565b95508019841693508086168417925050509392505050565b6000819050919050565b60006118c76118c26118bd8461101d565b6118a2565b61101d565b9050919050565b6000819050919050565b6118e1836118ac565b6118f56118ed826118ce565b848454611850565b825550505050565b600090565b61190a6118fd565b6119158184846118d8565b505050565b5b818110156119395761192e600082611902565b60018101905061191b565b5050565b601f82111561197e5761194f8161181e565b61195884611833565b81016020851015611967578190505b61197b61197385611833565b83018261191a565b50505b505050565b600082821c905092915050565b60006119a160001984600802611983565b1980831691505092915050565b60006119ba8383611990565b9150826002028217905092915050565b6119d382610d83565b67ffffffffffffffff8111156119ec576119eb610ef2565b5b6119f6825461156b565b611a0182828561193d565b600060209050601f831160018114611a345760008415611a22578287015190505b611a2c85826119ae565b865550611a94565b601f198416611a428661181e565b60005b82811015611a6a57848901518255600182019150602085019450602081019050611a45565b86831015611a875784890151611a83601f891682611990565b8355505b6001600288020188555050505b50505050505056fea264697066735822122096a398fe24828dcb47aa403e44ad2d3b1452892f6e60fe22368d5c42dd46550a64736f6c634300080f0033",
  "immutableReferences": {},
  "source": "// SPDX-License-Identifier: MIT\r\npragma solidity >=0.4.22 <0.9.0;\r\n\r\ncontract Bank {\r\n    address[] private addresses;\r\n    address payable private bank;\r\n\r\n    struct TransactionStruct {\r\n        string sender;\r\n        string receiver;\r\n        uint256 txvalue;\r\n        uint256 amount;\r\n        bool feeCollected;\r\n        bool toBank;\r\n        uint256 timestamp;\r\n    }\r\n\r\n    struct AccountStruct {\r\n        address addr;\r\n        string name;\r\n        uint256 balance;\r\n        bool isExisted;\r\n    }\r\n\r\n    constructor() {\r\n        bank = payable(msg.sender);\r\n    }\r\n\r\n    // mapping (address => AccountStruct) private AccountsRecord;\r\n    mapping(string => AccountStruct) private AccountsRecord;\r\n    mapping(address => string[]) private AccountsAddrRecord;\r\n\r\n    // mapping(uint256 => TransactionStruct) private mapTransactions;\r\n\r\n    // function addTransactionRecord(string memory accountName, TransactionStruct memory transaction) private {\r\n    // \t// AccountsRecord[accountName].transactionHistory[]\r\n    // }\r\n\r\n    function test() public pure returns (string memory) {\r\n        return \"sfdfas\";\r\n    }\r\n\r\n    function getMyAccList() public view returns (string[] memory) {\r\n        return AccountsAddrRecord[msg.sender];\r\n    }\r\n\r\n    function getAccBalance(string memory accountName)\r\n        public\r\n        view\r\n        returns (uint256)\r\n    {\r\n        return AccountsRecord[accountName].balance;\r\n    }\r\n\r\n    function CreateAccount(string memory accountName) public {\r\n        require(AccountsRecord[accountName].isExisted != true);\r\n        AccountsAddrRecord[msg.sender].push(accountName);\r\n        // TransactionStruct[] memory transactionHistory;\r\n        // TransactionStruct[] storage transactionHistory;\r\n        AccountsRecord[accountName] = AccountStruct({\r\n            name: accountName,\r\n            balance: 0,\r\n            isExisted: true,\r\n            addr: msg.sender\r\n            // transactionHistory: []\r\n            // transactionLength:\r\n        });\r\n    }\r\n\r\n    function Deposit(string memory accountName) public payable {\r\n        require(AccountsRecord[accountName].isExisted);\r\n        uint256 amountToAdd = msg.value - tx.gasprice;\r\n        AccountsRecord[accountName].balance += amountToAdd;\r\n    }\r\n\r\n    function Withdraw(string memory accountName, uint256 amount) public {\r\n        // string memory accountName = AccountsAddrRecord[msg.sender];\r\n        require(AccountsRecord[accountName].isExisted);\r\n        require(AccountsRecord[accountName].addr == msg.sender);\r\n        require(AccountsRecord[accountName].balance >= amount);\r\n        AccountsRecord[accountName].balance -= amount;\r\n        bank.transfer(amount);\r\n    }\r\n\r\n    function Transfer(\r\n        string memory _accountName,\r\n        string memory _targetAccName,\r\n        uint256 amount\r\n    ) public {\r\n        AccountStruct storage _senderAcc = AccountsRecord[_accountName];\r\n        AccountStruct storage _targetAcc = AccountsRecord[_targetAccName];\r\n        require(_senderAcc.isExisted);\r\n        require(_senderAcc.addr == msg.sender);\r\n        require(_senderAcc.balance >= amount);\r\n        uint256 amountToAdd = amount;\r\n        bool feeCollected = false;\r\n        if (_senderAcc.addr != _targetAcc.addr) {\r\n            amountToAdd = (amount * 99) / 100;\r\n            feeCollected = true;\r\n        }\r\n        _senderAcc.balance -= amount;\r\n        _targetAcc.balance += amountToAdd;\r\n    }\r\n\r\n    function BulkTransfer(\r\n        string memory _accountName,\r\n        string[] memory _targetAccsName,\r\n        uint256 amount\r\n    ) public {\r\n        require(AccountsRecord[_accountName].isExisted);\r\n        require(AccountsRecord[_accountName].addr == msg.sender);\r\n        uint256 _totalAmount = amount * _targetAccsName.length;\r\n        require(AccountsRecord[_accountName].balance >= _totalAmount);\r\n        AccountsRecord[_accountName].balance -= _totalAmount;\r\n        uint256 _i;\r\n        for (_i = 0; _i < _targetAccsName.length; _i++) {\r\n            this.Transfer(_accountName, _targetAccsName[_i], amount);\r\n        }\r\n        // AccountsRecord[targetAccName].balance += amount;\r\n    }\r\n\r\n    function GetAccountsList() public view returns (AccountStruct[] memory) {\r\n        string[] memory AccNameList = AccountsAddrRecord[msg.sender];\r\n        AccountStruct[] memory _payload;\r\n        uint256 _i = 0;\r\n        for (_i = 0; _i < AccNameList.length; _i++) {\r\n            _payload[_i] = (AccountsRecord[AccNameList[_i]]);\r\n        }\r\n        return _payload;\r\n    }\r\n}\r\n",
  "sourcePath": "C:\\Users\\ironp\\hackathon\\scb10x-bank\\contracts\\Account2.sol",
  "compiler": {
    "name": "solc",
    "version": "0.8.15+commit.e14f2714.Emscripten.clang"
  },
  "schemaVersion": "3.4.8",
  "updatedAt": "2022-07-07T07:45:25.842Z",
  "networkType": "ethereum",
  "devdoc": {
    "kind": "dev",
    "methods": {},
    "version": 1
  },
  "userdoc": {
    "kind": "user",
    "methods": {},
    "version": 1
  }
}